{"contracts/FundMe.sol":{"FundMe":{"abi":[{"inputs":[{"internalType":"address","name":"priceFeed","type":"address"}],"stateMutability":"nonpayable","type":"constructor"},{"inputs":[],"name":"FundMe__NotOwner","type":"error"},{"anonymous":false,"inputs":[{"indexed":true,"internalType":"address","name":"contributor","type":"address"},{"indexed":false,"internalType":"uint256","name":"amount","type":"uint256"}],"name":"FundReceived","type":"event"},{"anonymous":false,"inputs":[{"indexed":false,"internalType":"string","name":"message4","type":"string"},{"indexed":false,"internalType":"uint256","name":"gasCost","type":"uint256"}],"name":"GasCost","type":"event"},{"anonymous":false,"inputs":[{"indexed":false,"internalType":"uint256","name":"amount","type":"uint256"},{"indexed":false,"internalType":"string","name":"message5","type":"string"},{"indexed":false,"internalType":"address","name":"investor","type":"address"}],"name":"Refund","type":"event"},{"anonymous":false,"inputs":[{"indexed":false,"internalType":"address","name":"sender","type":"address"},{"indexed":false,"internalType":"string","name":"message1","type":"string"},{"indexed":false,"internalType":"uint256","name":"amount","type":"uint256"},{"indexed":false,"internalType":"string","name":"message2","type":"string"},{"indexed":false,"internalType":"address","name":"funder","type":"address"},{"indexed":false,"internalType":"string","name":"message3","type":"string"}],"name":"Withdrawal","type":"event"},{"inputs":[],"name":"MINIMUM_USD","outputs":[{"internalType":"uint256","name":"","type":"uint256"}],"stateMutability":"view","type":"function"},{"inputs":[],"name":"cheaperWithdraw","outputs":[],"stateMutability":"nonpayable","type":"function"},{"inputs":[],"name":"fund","outputs":[],"stateMutability":"payable","type":"function"},{"inputs":[{"internalType":"address","name":"fundingAddress","type":"address"}],"name":"getAddressToAmountFunded","outputs":[{"internalType":"uint256","name":"","type":"uint256"}],"stateMutability":"view","type":"function"},{"inputs":[{"internalType":"uint256","name":"index","type":"uint256"}],"name":"getFunder","outputs":[{"internalType":"address","name":"","type":"address"}],"stateMutability":"view","type":"function"},{"inputs":[],"name":"getPriceFeed","outputs":[{"internalType":"contract AggregatorV3Interface","name":"","type":"address"}],"stateMutability":"view","type":"function"},{"inputs":[{"internalType":"address payable","name":"userAddress","type":"address"},{"internalType":"uint256","name":"refundAmount","type":"uint256"}],"name":"refund","outputs":[],"stateMutability":"nonpayable","type":"function"},{"inputs":[{"internalType":"uint256","name":"","type":"uint256"}],"name":"s_funders","outputs":[{"internalType":"address","name":"","type":"address"}],"stateMutability":"view","type":"function"},{"inputs":[],"name":"withdraw","outputs":[],"stateMutability":"nonpayable","type":"function"}],"devdoc":{"author":"Patrick Collins","details":"This implements price feeds as our library","kind":"dev","methods":{"getAddressToAmountFunded(address)":{"params":{"fundingAddress":"the address of the funder"},"returns":{"_0":"the amount funded"}}},"title":"A sample Funding Contract","version":1},"evm":{"bytecode":{"linkReferences":{},"object":"60a06040523480156200001157600080fd5b506040516200273e3803806200273e833981810160405281019062000037919062000124565b62000053675b65fac07614f5ec60c01b6200010a60201b60201c565b6200006f67be95abd8d32b55f760c01b6200010a60201b60201c565b80600260006101000a81548173ffffffffffffffffffffffffffffffffffffffff021916908373ffffffffffffffffffffffffffffffffffffffff160217905550620000cc67bb6ba21b9068d6a860c01b6200010a60201b60201c565b3373ffffffffffffffffffffffffffffffffffffffff1660808173ffffffffffffffffffffffffffffffffffffffff1660601b8152505050620001a9565b50565b6000815190506200011e816200018f565b92915050565b6000602082840312156200013d576200013c6200018a565b5b60006200014d848285016200010d565b91505092915050565b600062000163826200016a565b9050919050565b600073ffffffffffffffffffffffffffffffffffffffff82169050919050565b600080fd5b6200019a8162000156565b8114620001a657600080fd5b50565b60805160601c61254c620001f2600039600081816102d001528181610565015281816105f601528181610725015281816107b0015281816111c601526114e8015261254c6000f3fe6080604052600436106100865760003560e01c80636b69a592116100595780636b69a592146101455780639e87a5cd14610170578063b60d42881461019b578063be2693f0146101a5578063d7b4750c146101bc57610086565b80630343fb251461008b5780633ccfd60b146100c8578063410085df146100df57806354861af714610108575b600080fd5b34801561009757600080fd5b506100b260048036038101906100ad919061196e565b6101f9565b6040516100bf9190611e0c565b60405180910390f35b3480156100d457600080fd5b506100dd61027e565b005b3480156100eb57600080fd5b506101066004803603810190610101919061199b565b61075e565b005b34801561011457600080fd5b5061012f600480360381019061012a91906119db565b610e4d565b60405161013c9190611c78565b60405180910390f35b34801561015157600080fd5b5061015a610e8c565b6040516101679190611e0c565b60405180910390f35b34801561017c57600080fd5b50610185610e91565b6040516101929190611d03565b60405180910390f35b6101a3610ef7565b005b3480156101b157600080fd5b506101ba611174565b005b3480156101c857600080fd5b506101e360048036038101906101de91906119db565b6115ce565b6040516101f09190611c78565b60405180910390f35b600061020f672c108d345fcd1e0f60c01b611652565b610223671d0fb53286ffb24e60c01b611652565b61023767cd1165a728df0acc60c01b611652565b600160008373ffffffffffffffffffffffffffffffffffffffff1673ffffffffffffffffffffffffffffffffffffffff168152602001908152602001600020549050919050565b610292676cca0dff85dfc84560c01b611652565b6102a66757db2ba4fb8145ca60c01b611652565b6102ba67a37dd95357493ec560c01b611652565b6102ce67f42e980538f66a2b60c01b611652565b7f000000000000000000000000000000000000000000000000000000000000000073ffffffffffffffffffffffffffffffffffffffff163373ffffffffffffffffffffffffffffffffffffffff16146103675761033567bb31bef5c1de359f60c01b611652565b6040517f579610db00000000000000000000000000000000000000000000000000000000815260040160405180910390fd5b61037b67b598fc8f5084bbcd60c01b611652565b61038f67f0173a81c57556c460c01b611652565b6103a36722e660de6d0fd92f60c01b611652565b6103b76792f98f90441fd96f60c01b611652565b6103cb67a140a4781bb3126460c01b611652565b6103df678f3b857ab975113f60c01b611652565b60005b6000805490508110156104c65761040367c7229dea74b44dd460c01b611652565b610417672117d900172baee360c01b611652565b600080828154811061042c5761042b612208565b5b9060005260206000200160009054906101000a900473ffffffffffffffffffffffffffffffffffffffff16905061046d67d3b2dba96fbba5dd60c01b611652565b6000600160008373ffffffffffffffffffffffffffffffffffffffff1673ffffffffffffffffffffffffffffffffffffffff168152602001908152602001600020819055505080806104be90612161565b9150506103e2565b506104db67bb3f479cfaf55b7960c01b611652565b600067ffffffffffffffff8111156104f6576104f5612237565b5b6040519080825280602002602001820160405280156105245781602001602082028036833780820191505090505b506000908051906020019061053a929190611849565b5061054f6751735c850c144eeb60c01b611652565b61056367f43a6fa3dbd8693760c01b611652565b7f000000000000000000000000000000000000000000000000000000000000000073ffffffffffffffffffffffffffffffffffffffff166108fc479081150290604051600060405180830381858888f193505050501580156105c9573d6000803e3d6000fd5b506105de67d64253d8d38f70b260c01b611652565b6105f2679b7306fcb30678db60c01b611652565b60007f000000000000000000000000000000000000000000000000000000000000000073ffffffffffffffffffffffffffffffffffffffff164760405161063890611c63565b60006040518083038185875af1925050503d8060008114610675576040519150601f19603f3d011682016040523d82523d6000602084013e61067a565b606091505b505090506106926772ed2bbc1243cfaa60c01b611652565b6106a667b0d0f0ae0798a70b60c01b611652565b6106ba6727097bb88b32cff060c01b611652565b806106c457600080fd5b6106d867c2db940e367103da60c01b611652565b6106ec6783d977041aae87c060c01b611652565b61070067bd260534ab6a6f1660c01b611652565b7f86c8b3fe5cdf1f42c50c8745455206d24bb637ed5afe24075813b808ab62732933477f000000000000000000000000000000000000000000000000000000000000000060405161075393929190611c93565b60405180910390a150565b61077267de4588651b4301ba60c01b611652565b6107866757db2ba4fb8145ca60c01b611652565b61079a67a37dd95357493ec560c01b611652565b6107ae67f42e980538f66a2b60c01b611652565b7f000000000000000000000000000000000000000000000000000000000000000073ffffffffffffffffffffffffffffffffffffffff163373ffffffffffffffffffffffffffffffffffffffff16146108475761081567bb31bef5c1de359f60c01b611652565b6040517f579610db00000000000000000000000000000000000000000000000000000000815260040160405180910390fd5b61085b67b598fc8f5084bbcd60c01b611652565b61086f67f0173a81c57556c460c01b611652565b6108836771ce4ae12fd4a4eb60c01b611652565b610897675534fb2d06fbe49360c01b611652565b6108ab6741a5e5220262f21d60c01b611652565b6108bf678fac45c7fb31aaf760c01b611652565b6108d367dd9ca4949f95c73960c01b611652565b600073ffffffffffffffffffffffffffffffffffffffff168273ffffffffffffffffffffffffffffffffffffffff161415610943576040517f08c379a000000000000000000000000000000000000000000000000000000000815260040161093a90611d3e565b60405180910390fd5b61095767df18c4738b4b536960c01b611652565b61096b67df7abe4a423ce22260c01b611652565b61097f67a7aa6a184897bf7360c01b611652565b610993673a51646bdec84ca960c01b611652565b61099c82611655565b6109db576040517f08c379a00000000000000000000000000000000000000000000000000000000081526004016109d290611d1e565b60405180910390fd5b6109ef67d9b31c8965ed65e860c01b611652565b610a036767701f9f67f1bfa660c01b611652565b610a1767b169a44f0dc6aa0560c01b611652565b610a2b67d5fc1a19d2c67ac260c01b611652565b6000600160008473ffffffffffffffffffffffffffffffffffffffff1673ffffffffffffffffffffffffffffffffffffffff1681526020019081526020016000205411610aad576040517f08c379a0000000000000000000000000000000000000000000000000000000008152600401610aa490611dbe565b60405180910390fd5b610ac167a1858779310cb8b460c01b611652565b610ad5678634c149b0b6ffce60c01b611652565b610ae967e49d6067af99cd9560c01b611652565b6000600160008473ffffffffffffffffffffffffffffffffffffffff1673ffffffffffffffffffffffffffffffffffffffff168152602001908152602001600020549050610b416713c4bed6ddbd852660c01b611652565b610b55673b234da1a1af9bc760c01b611652565b610b6967537484f9778bd9c860c01b611652565b80821115610bac576040517f08c379a0000000000000000000000000000000000000000000000000000000008152600401610ba390611d9e565b60405180910390fd5b610bc067ebb6f6713c53a9c060c01b611652565b610bd4672e76a8cb344d111460c01b611652565b610be867265fdf39bd72e1d760c01b611652565b60006152083a610bf8919061201d565b9050610c0e6769a1473161911e2e60c01b611652565b610c22670a46a19abfbe683a60c01b611652565b7f9c8133187fb8ebbff36bdda7e76f25c25ceb2f95ae3ad46aa0d5ffd2c1ad27c181604051610c519190611dde565b60405180910390a1610c6d670ec86daf22c5624860c01b611652565b610c8167a808bc6c5306d49560c01b611652565b610c95672ed89c03cd69d2d360c01b611652565b478184610ca29190611e7f565b1115610ce3576040517f08c379a0000000000000000000000000000000000000000000000000000000008152600401610cda90611d5e565b60405180910390fd5b610cf767b12f4d78c146f5c960c01b611652565b610d0b67da1151dc9856f36f60c01b611652565b82600160008673ffffffffffffffffffffffffffffffffffffffff1673ffffffffffffffffffffffffffffffffffffffff1681526020019081526020016000206000828254610d5a9190612077565b92505081905550610d7567623e8a9aad43883d60c01b611652565b610d89675a22e741b51c10c060c01b611652565b8373ffffffffffffffffffffffffffffffffffffffff166108fc8285610daf9190612077565b9081150290604051600060405180830381858888f19350505050158015610dda573d6000803e3d6000fd5b50610def67e54ee6a8e49c60e160c01b611652565b610e0367a9bba0ca73655d9760c01b611652565b7f02a81519bc34b7d126a5e787e78a239c21ea38fafcb6efc87bae1d88705706e88184610e309190612077565b85604051610e3f929190611e27565b60405180910390a150505050565b60008181548110610e5d57600080fd5b906000526020600020016000915054906101000a900473ffffffffffffffffffffffffffffffffffffffff1681565b600581565b6000610ea767daa3be649556c11660c01b611652565b610ebb67b59014ed289c731b60c01b611652565b610ecf67072bf7ad1acfb08660c01b611652565b600260009054906101000a900473ffffffffffffffffffffffffffffffffffffffff16905090565b610f0b678fc613ad90cf643660c01b611652565b610f1f670625be242f42b7dd60c01b611652565b610f3367f4dcb25b0191eab760c01b611652565b610f47678e8ccc337f698e0560c01b611652565b6005610f7e600260009054906101000a900473ffffffffffffffffffffffffffffffffffffffff163461167890919063ffffffff16565b1015610fbf576040517f08c379a0000000000000000000000000000000000000000000000000000000008152600401610fb690611d7e565b60405180910390fd5b610fd3674765a9704f57558d60c01b611652565b610fe7671c3d9e475c52983860c01b611652565b34600160003373ffffffffffffffffffffffffffffffffffffffff1673ffffffffffffffffffffffffffffffffffffffff16815260200190815260200160002060008282546110369190611e7f565b9250508190555061105167a6259518a2fc2c0560c01b611652565b61106567e31dc22e0927760d60c01b611652565b6000339080600181540180825580915050600190039060005260206000200160009091909190916101000a81548173ffffffffffffffffffffffffffffffffffffffff021916908373ffffffffffffffffffffffffffffffffffffffff1602179055506110dc672a1f8886e43cd05260c01b611652565b6110f067dd1fb1180927b48a60c01b611652565b3373ffffffffffffffffffffffffffffffffffffffff167f54a5b8782470a0d2c022b3b9e5e729503ac5dbdfe053afeb4559f9297f7565a661115d600260009054906101000a900473ffffffffffffffffffffffffffffffffffffffff163461167890919063ffffffff16565b60405161116a9190611e0c565b60405180910390a2565b6111886776fb491726ea25e460c01b611652565b61119c6757db2ba4fb8145ca60c01b611652565b6111b067a37dd95357493ec560c01b611652565b6111c467f42e980538f66a2b60c01b611652565b7f000000000000000000000000000000000000000000000000000000000000000073ffffffffffffffffffffffffffffffffffffffff163373ffffffffffffffffffffffffffffffffffffffff161461125d5761122b67bb31bef5c1de359f60c01b611652565b6040517f579610db00000000000000000000000000000000000000000000000000000000815260040160405180910390fd5b61127167b598fc8f5084bbcd60c01b611652565b61128567f0173a81c57556c460c01b611652565b61129967ebea3f367811e53660c01b611652565b6112ad67bff0233d6338a78060c01b611652565b6112c1677dc49db98e87366560c01b611652565b6112d567a85d9a898284261760c01b611652565b60008080548060200260200160405190810160405280929190818152602001828054801561135857602002820191906000526020600020905b8160009054906101000a900473ffffffffffffffffffffffffffffffffffffffff1673ffffffffffffffffffffffffffffffffffffffff168152602001906001019080831161130e575b5050505050905061137367dc1b9f283da8f1db60c01b611652565b611387679ac665c68a7e8b5f60c01b611652565b60005b8151811015611447576113a7674f9d526615ce5ad560c01b611652565b6113bb679d33cb20e20d36ba60c01b611652565b60008282815181106113d0576113cf612208565b5b602002602001015190506113ee67d63e5e67fe54b87360c01b611652565b6000600160008373ffffffffffffffffffffffffffffffffffffffff1673ffffffffffffffffffffffffffffffffffffffff1681526020019081526020016000208190555050808061143f90612161565b91505061138a565b5061145c67c342f7cc8ef20bd160c01b611652565b600067ffffffffffffffff81111561147757611476612237565b5b6040519080825280602002602001820160405280156114a55781602001602082028036833780820191505090505b50600090805190602001906114bb929190611849565b506114d067017ea339b8c0317b60c01b611652565b6114e467d8a4543f6cf658c660c01b611652565b60007f000000000000000000000000000000000000000000000000000000000000000073ffffffffffffffffffffffffffffffffffffffff164760405161152a90611c63565b60006040518083038185875af1925050503d8060008114611567576040519150601f19603f3d011682016040523d82523d6000602084013e61156c565b606091505b5050905061158467e7f8ab589276e2d960c01b611652565b61159867d3752efa60b4cf7c60c01b611652565b6115ac675a210a53fe32ebbd60c01b611652565b806115b657600080fd5b6115ca67cb0381b15162da7a60c01b611652565b5050565b60006115e467d55bfc38d52fc97760c01b611652565b6115f867aad7268f4e85a09560c01b611652565b61160c677fd869dff3b4d98060c01b611652565b600082815481106116205761161f612208565b5b9060005260206000200160009054906101000a900473ffffffffffffffffffffffffffffffffffffffff169050919050565b50565b6000808273ffffffffffffffffffffffffffffffffffffffff163b119050919050565b600061168e67491ec053804c9ecd60c01b611741565b6116a267bbb1230f171f62a760c01b611741565b6116b6678d723fa1383d8b1a60c01b611741565b60006116c183611744565b90506116d767acf764fa8ec85bce60c01b611741565b6116eb6713aa72290ad5963260c01b611741565b6000670de0b6b3a76400008583611702919061201d565b61170c9190611ed5565b9050611722674081705437a0294160c01b611741565b6117366703be0483229d05f360c01b611741565b809250505092915050565b50565b600061175a673cf1d95f8099521160c01b611741565b61176e67e6c246274703bea060c01b611741565b61178267ac7f4820ec811b9660c01b611741565b60008273ffffffffffffffffffffffffffffffffffffffff1663feaf968c6040518163ffffffff1660e01b815260040160a06040518083038186803b1580156117ca57600080fd5b505afa1580156117de573d6000803e3d6000fd5b505050506040513d601f19601f820116820180604052508101906118029190611a08565b50505091505061181c67d0bf8cdf0a6d7a5960c01b611741565b61183067607720cdfaff066e60c01b611741565b6402540be400816118419190611f06565b915050919050565b8280548282559060005260206000209081019282156118c2579160200282015b828111156118c15782518260006101000a81548173ffffffffffffffffffffffffffffffffffffffff021916908373ffffffffffffffffffffffffffffffffffffffff16021790555091602001919060010190611869565b5b5090506118cf91906118d3565b5090565b5b808211156118ec5760008160009055506001016118d4565b5090565b6000813590506118ff816124a3565b92915050565b600081359050611914816124ba565b92915050565b600081519050611929816124d1565b92915050565b60008135905061193e816124e8565b92915050565b600081519050611953816124e8565b92915050565b600081519050611968816124ff565b92915050565b60006020828403121561198457611983612266565b5b6000611992848285016118f0565b91505092915050565b600080604083850312156119b2576119b1612266565b5b60006119c085828601611905565b92505060206119d18582860161192f565b9150509250929050565b6000602082840312156119f1576119f0612266565b5b60006119ff8482850161192f565b91505092915050565b600080600080600060a08688031215611a2457611a23612266565b5b6000611a3288828901611959565b9550506020611a438882890161191a565b9450506040611a5488828901611944565b9350506060611a6588828901611944565b9250506080611a7688828901611959565b9150509295509295909350565b611a8c81612119565b82525050565b611a9b816120ab565b82525050565b611aaa8161212b565b82525050565b6000611abd601e83611e6e565b9150611ac88261226b565b602082019050919050565b6000611ae0600d83611e6e565b9150611aeb82612294565b602082019050919050565b6000611b03601983611e6e565b9150611b0e826122bd565b602082019050919050565b6000611b26602a83611e6e565b9150611b31826122e6565b604082019050919050565b6000611b49601b83611e6e565b9150611b5482612335565b602082019050919050565b6000611b6c600583611e6e565b9150611b778261235e565b602082019050919050565b6000611b8f603083611e6e565b9150611b9a82612387565b604082019050919050565b6000611bb2600083611e63565b9150611bbd826123d6565b600082019050919050565b6000611bd5602f83611e6e565b9150611be0826123d9565b604082019050919050565b6000611bf8600383611e6e565b9150611c0382612428565b602082019050919050565b6000611c1b600c83611e6e565b9150611c2682612451565b602082019050919050565b6000611c3e601883611e6e565b9150611c498261247a565b602082019050919050565b611c5d816120f9565b82525050565b6000611c6e82611ba5565b9150819050919050565b6000602082019050611c8d6000830184611a92565b92915050565b600060c082019050611ca86000830186611a92565b8181036020830152611cb981611b5f565b9050611cc86040830185611c54565b8181036060830152611cd981611beb565b9050611ce86080830184611a92565b81810360a0830152611cf981611ad3565b9050949350505050565b6000602082019050611d186000830184611aa1565b92915050565b60006020820190508181036000830152611d3781611ab0565b9050919050565b60006020820190508181036000830152611d5781611af6565b9050919050565b60006020820190508181036000830152611d7781611b19565b9050919050565b60006020820190508181036000830152611d9781611b3c565b9050919050565b60006020820190508181036000830152611db781611b82565b9050919050565b60006020820190508181036000830152611dd781611bc8565b9050919050565b60006040820190508181036000830152611df781611c0e565b9050611e066020830184611c54565b92915050565b6000602082019050611e216000830184611c54565b92915050565b6000606082019050611e3c6000830185611c54565b8181036020830152611e4d81611c31565b9050611e5c6040830184611a83565b9392505050565b600081905092915050565b600082825260208201905092915050565b6000611e8a826120f9565b9150611e95836120f9565b9250827fffffffffffffffffffffffffffffffffffffffffffffffffffffffffffffffff03821115611eca57611ec96121aa565b5b828201905092915050565b6000611ee0826120f9565b9150611eeb836120f9565b925082611efb57611efa6121d9565b5b828204905092915050565b6000611f11826120cf565b9150611f1c836120cf565b9250827f7fffffffffffffffffffffffffffffffffffffffffffffffffffffffffffffff0482116000841360008413161615611f5b57611f5a6121aa565b5b817f80000000000000000000000000000000000000000000000000000000000000000583126000841260008413161615611f9857611f976121aa565b5b827f80000000000000000000000000000000000000000000000000000000000000000582126000841360008412161615611fd557611fd46121aa565b5b827f7fffffffffffffffffffffffffffffffffffffffffffffffffffffffffffffff0582126000841260008412161615612012576120116121aa565b5b828202905092915050565b6000612028826120f9565b9150612033836120f9565b9250817fffffffffffffffffffffffffffffffffffffffffffffffffffffffffffffffff048311821515161561206c5761206b6121aa565b5b828202905092915050565b6000612082826120f9565b915061208d836120f9565b9250828210156120a05761209f6121aa565b5b828203905092915050565b60006120b6826120d9565b9050919050565b60006120c8826120d9565b9050919050565b6000819050919050565b600073ffffffffffffffffffffffffffffffffffffffff82169050919050565b6000819050919050565b600069ffffffffffffffffffff82169050919050565b60006121248261213d565b9050919050565b60006121368261213d565b9050919050565b60006121488261214f565b9050919050565b600061215a826120d9565b9050919050565b600061216c826120f9565b91507fffffffffffffffffffffffffffffffffffffffffffffffffffffffffffffffff82141561219f5761219e6121aa565b5b600182019050919050565b7f4e487b7100000000000000000000000000000000000000000000000000000000600052601160045260246000fd5b7f4e487b7100000000000000000000000000000000000000000000000000000000600052601260045260246000fd5b7f4e487b7100000000000000000000000000000000000000000000000000000000600052603260045260246000fd5b7f4e487b7100000000000000000000000000000000000000000000000000000000600052604160045260246000fd5b600080fd5b7f557365722061646472657373206973206e6f74206120636f6e74726163740000600082015250565b7f207375636365737366756c6c7900000000000000000000000000000000000000600082015250565b7f55736572206164647265737320697320756e646566696e656400000000000000600082015250565b7f4e6f7420656e6f7567682066756e647320696e2074686520636f6e747261637460008201527f20746f20726566756e6400000000000000000000000000000000000000000000602082015250565b7f596f75206e65656420746f207370656e64206d6f726520455448210000000000600082015250565b7f73656e7420000000000000000000000000000000000000000000000000000000600082015250565b7f526566756e6420616d6f756e74206973206d6f7265207468616e20746865206e60008201527f657420616d6f756e742066756e64656400000000000000000000000000000000602082015250565b50565b7f5573657220686173206e6f742073656e7420616e79206d6f6e657920746f207460008201527f686520636f6e7472616374207965740000000000000000000000000000000000602082015250565b7f20746f0000000000000000000000000000000000000000000000000000000000600082015250565b7f47617320636f73742069733a0000000000000000000000000000000000000000600082015250565b7f7375636365737366756c6c7920726566756e64656420746f0000000000000000600082015250565b6124ac816120ab565b81146124b757600080fd5b50565b6124c3816120bd565b81146124ce57600080fd5b50565b6124da816120cf565b81146124e557600080fd5b50565b6124f1816120f9565b81146124fc57600080fd5b50565b61250881612103565b811461251357600080fd5b5056fea26469706673582212203b190dc8b367e0f1d11aebf12e6d9c67657629da6004c678583165acb7b009c464736f6c63430008070033","opcodes":"PUSH1 0xA0 PUSH1 0x40 MSTORE CALLVALUE DUP1 ISZERO PUSH3 0x11 JUMPI PUSH1 0x0 DUP1 REVERT JUMPDEST POP PUSH1 0x40 MLOAD PUSH3 0x273E CODESIZE SUB DUP1 PUSH3 0x273E DUP4 CODECOPY DUP2 DUP2 ADD PUSH1 0x40 MSTORE DUP2 ADD SWAP1 PUSH3 0x37 SWAP2 SWAP1 PUSH3 0x124 JUMP JUMPDEST PUSH3 0x53 PUSH8 0x5B65FAC07614F5EC PUSH1 0xC0 SHL PUSH3 0x10A PUSH1 0x20 SHL PUSH1 0x20 SHR JUMP JUMPDEST PUSH3 0x6F PUSH8 0xBE95ABD8D32B55F7 PUSH1 0xC0 SHL PUSH3 0x10A PUSH1 0x20 SHL PUSH1 0x20 SHR JUMP JUMPDEST DUP1 PUSH1 0x2 PUSH1 0x0 PUSH2 0x100 EXP DUP2 SLOAD DUP2 PUSH20 0xFFFFFFFFFFFFFFFFFFFFFFFFFFFFFFFFFFFFFFFF MUL NOT AND SWAP1 DUP4 PUSH20 0xFFFFFFFFFFFFFFFFFFFFFFFFFFFFFFFFFFFFFFFF AND MUL OR SWAP1 SSTORE POP PUSH3 0xCC PUSH8 0xBB6BA21B9068D6A8 PUSH1 0xC0 SHL PUSH3 0x10A PUSH1 0x20 SHL PUSH1 0x20 SHR JUMP JUMPDEST CALLER PUSH20 0xFFFFFFFFFFFFFFFFFFFFFFFFFFFFFFFFFFFFFFFF AND PUSH1 0x80 DUP2 PUSH20 0xFFFFFFFFFFFFFFFFFFFFFFFFFFFFFFFFFFFFFFFF AND PUSH1 0x60 SHL DUP2 MSTORE POP POP POP PUSH3 0x1A9 JUMP JUMPDEST POP JUMP JUMPDEST PUSH1 0x0 DUP2 MLOAD SWAP1 POP PUSH3 0x11E DUP2 PUSH3 0x18F JUMP JUMPDEST SWAP3 SWAP2 POP POP JUMP JUMPDEST PUSH1 0x0 PUSH1 0x20 DUP3 DUP5 SUB SLT ISZERO PUSH3 0x13D JUMPI PUSH3 0x13C PUSH3 0x18A JUMP JUMPDEST JUMPDEST PUSH1 0x0 PUSH3 0x14D DUP5 DUP3 DUP6 ADD PUSH3 0x10D JUMP JUMPDEST SWAP2 POP POP SWAP3 SWAP2 POP POP JUMP JUMPDEST PUSH1 0x0 PUSH3 0x163 DUP3 PUSH3 0x16A JUMP JUMPDEST SWAP1 POP SWAP2 SWAP1 POP JUMP JUMPDEST PUSH1 0x0 PUSH20 0xFFFFFFFFFFFFFFFFFFFFFFFFFFFFFFFFFFFFFFFF DUP3 AND SWAP1 POP SWAP2 SWAP1 POP JUMP JUMPDEST PUSH1 0x0 DUP1 REVERT JUMPDEST PUSH3 0x19A DUP2 PUSH3 0x156 JUMP JUMPDEST DUP2 EQ PUSH3 0x1A6 JUMPI PUSH1 0x0 DUP1 REVERT JUMPDEST POP JUMP JUMPDEST PUSH1 0x80 MLOAD PUSH1 0x60 SHR PUSH2 0x254C PUSH3 0x1F2 PUSH1 0x0 CODECOPY PUSH1 0x0 DUP2 DUP2 PUSH2 0x2D0 ADD MSTORE DUP2 DUP2 PUSH2 0x565 ADD MSTORE DUP2 DUP2 PUSH2 0x5F6 ADD MSTORE DUP2 DUP2 PUSH2 0x725 ADD MSTORE DUP2 DUP2 PUSH2 0x7B0 ADD MSTORE DUP2 DUP2 PUSH2 0x11C6 ADD MSTORE PUSH2 0x14E8 ADD MSTORE PUSH2 0x254C PUSH1 0x0 RETURN INVALID PUSH1 0x80 PUSH1 0x40 MSTORE PUSH1 0x4 CALLDATASIZE LT PUSH2 0x86 JUMPI PUSH1 0x0 CALLDATALOAD PUSH1 0xE0 SHR DUP1 PUSH4 0x6B69A592 GT PUSH2 0x59 JUMPI DUP1 PUSH4 0x6B69A592 EQ PUSH2 0x145 JUMPI DUP1 PUSH4 0x9E87A5CD EQ PUSH2 0x170 JUMPI DUP1 PUSH4 0xB60D4288 EQ PUSH2 0x19B JUMPI DUP1 PUSH4 0xBE2693F0 EQ PUSH2 0x1A5 JUMPI DUP1 PUSH4 0xD7B4750C EQ PUSH2 0x1BC JUMPI PUSH2 0x86 JUMP JUMPDEST DUP1 PUSH4 0x343FB25 EQ PUSH2 0x8B JUMPI DUP1 PUSH4 0x3CCFD60B EQ PUSH2 0xC8 JUMPI DUP1 PUSH4 0x410085DF EQ PUSH2 0xDF JUMPI DUP1 PUSH4 0x54861AF7 EQ PUSH2 0x108 JUMPI JUMPDEST PUSH1 0x0 DUP1 REVERT JUMPDEST CALLVALUE DUP1 ISZERO PUSH2 0x97 JUMPI PUSH1 0x0 DUP1 REVERT JUMPDEST POP PUSH2 0xB2 PUSH1 0x4 DUP1 CALLDATASIZE SUB DUP2 ADD SWAP1 PUSH2 0xAD SWAP2 SWAP1 PUSH2 0x196E JUMP JUMPDEST PUSH2 0x1F9 JUMP JUMPDEST PUSH1 0x40 MLOAD PUSH2 0xBF SWAP2 SWAP1 PUSH2 0x1E0C JUMP JUMPDEST PUSH1 0x40 MLOAD DUP1 SWAP2 SUB SWAP1 RETURN JUMPDEST CALLVALUE DUP1 ISZERO PUSH2 0xD4 JUMPI PUSH1 0x0 DUP1 REVERT JUMPDEST POP PUSH2 0xDD PUSH2 0x27E JUMP JUMPDEST STOP JUMPDEST CALLVALUE DUP1 ISZERO PUSH2 0xEB JUMPI PUSH1 0x0 DUP1 REVERT JUMPDEST POP PUSH2 0x106 PUSH1 0x4 DUP1 CALLDATASIZE SUB DUP2 ADD SWAP1 PUSH2 0x101 SWAP2 SWAP1 PUSH2 0x199B JUMP JUMPDEST PUSH2 0x75E JUMP JUMPDEST STOP JUMPDEST CALLVALUE DUP1 ISZERO PUSH2 0x114 JUMPI PUSH1 0x0 DUP1 REVERT JUMPDEST POP PUSH2 0x12F PUSH1 0x4 DUP1 CALLDATASIZE SUB DUP2 ADD SWAP1 PUSH2 0x12A SWAP2 SWAP1 PUSH2 0x19DB JUMP JUMPDEST PUSH2 0xE4D JUMP JUMPDEST PUSH1 0x40 MLOAD PUSH2 0x13C SWAP2 SWAP1 PUSH2 0x1C78 JUMP JUMPDEST PUSH1 0x40 MLOAD DUP1 SWAP2 SUB SWAP1 RETURN JUMPDEST CALLVALUE DUP1 ISZERO PUSH2 0x151 JUMPI PUSH1 0x0 DUP1 REVERT JUMPDEST POP PUSH2 0x15A PUSH2 0xE8C JUMP JUMPDEST PUSH1 0x40 MLOAD PUSH2 0x167 SWAP2 SWAP1 PUSH2 0x1E0C JUMP JUMPDEST PUSH1 0x40 MLOAD DUP1 SWAP2 SUB SWAP1 RETURN JUMPDEST CALLVALUE DUP1 ISZERO PUSH2 0x17C JUMPI PUSH1 0x0 DUP1 REVERT JUMPDEST POP PUSH2 0x185 PUSH2 0xE91 JUMP JUMPDEST PUSH1 0x40 MLOAD PUSH2 0x192 SWAP2 SWAP1 PUSH2 0x1D03 JUMP JUMPDEST PUSH1 0x40 MLOAD DUP1 SWAP2 SUB SWAP1 RETURN JUMPDEST PUSH2 0x1A3 PUSH2 0xEF7 JUMP JUMPDEST STOP JUMPDEST CALLVALUE DUP1 ISZERO PUSH2 0x1B1 JUMPI PUSH1 0x0 DUP1 REVERT JUMPDEST POP PUSH2 0x1BA PUSH2 0x1174 JUMP JUMPDEST STOP JUMPDEST CALLVALUE DUP1 ISZERO PUSH2 0x1C8 JUMPI PUSH1 0x0 DUP1 REVERT JUMPDEST POP PUSH2 0x1E3 PUSH1 0x4 DUP1 CALLDATASIZE SUB DUP2 ADD SWAP1 PUSH2 0x1DE SWAP2 SWAP1 PUSH2 0x19DB JUMP JUMPDEST PUSH2 0x15CE JUMP JUMPDEST PUSH1 0x40 MLOAD PUSH2 0x1F0 SWAP2 SWAP1 PUSH2 0x1C78 JUMP JUMPDEST PUSH1 0x40 MLOAD DUP1 SWAP2 SUB SWAP1 RETURN JUMPDEST PUSH1 0x0 PUSH2 0x20F PUSH8 0x2C108D345FCD1E0F PUSH1 0xC0 SHL PUSH2 0x1652 JUMP JUMPDEST PUSH2 0x223 PUSH8 0x1D0FB53286FFB24E PUSH1 0xC0 SHL PUSH2 0x1652 JUMP JUMPDEST PUSH2 0x237 PUSH8 0xCD1165A728DF0ACC PUSH1 0xC0 SHL PUSH2 0x1652 JUMP JUMPDEST PUSH1 0x1 PUSH1 0x0 DUP4 PUSH20 0xFFFFFFFFFFFFFFFFFFFFFFFFFFFFFFFFFFFFFFFF AND PUSH20 0xFFFFFFFFFFFFFFFFFFFFFFFFFFFFFFFFFFFFFFFF AND DUP2 MSTORE PUSH1 0x20 ADD SWAP1 DUP2 MSTORE PUSH1 0x20 ADD PUSH1 0x0 KECCAK256 SLOAD SWAP1 POP SWAP2 SWAP1 POP JUMP JUMPDEST PUSH2 0x292 PUSH8 0x6CCA0DFF85DFC845 PUSH1 0xC0 SHL PUSH2 0x1652 JUMP JUMPDEST PUSH2 0x2A6 PUSH8 0x57DB2BA4FB8145CA PUSH1 0xC0 SHL PUSH2 0x1652 JUMP JUMPDEST PUSH2 0x2BA PUSH8 0xA37DD95357493EC5 PUSH1 0xC0 SHL PUSH2 0x1652 JUMP JUMPDEST PUSH2 0x2CE PUSH8 0xF42E980538F66A2B PUSH1 0xC0 SHL PUSH2 0x1652 JUMP JUMPDEST PUSH32 0x0 PUSH20 0xFFFFFFFFFFFFFFFFFFFFFFFFFFFFFFFFFFFFFFFF AND CALLER PUSH20 0xFFFFFFFFFFFFFFFFFFFFFFFFFFFFFFFFFFFFFFFF AND EQ PUSH2 0x367 JUMPI PUSH2 0x335 PUSH8 0xBB31BEF5C1DE359F PUSH1 0xC0 SHL PUSH2 0x1652 JUMP JUMPDEST PUSH1 0x40 MLOAD PUSH32 0x579610DB00000000000000000000000000000000000000000000000000000000 DUP2 MSTORE PUSH1 0x4 ADD PUSH1 0x40 MLOAD DUP1 SWAP2 SUB SWAP1 REVERT JUMPDEST PUSH2 0x37B PUSH8 0xB598FC8F5084BBCD PUSH1 0xC0 SHL PUSH2 0x1652 JUMP JUMPDEST PUSH2 0x38F PUSH8 0xF0173A81C57556C4 PUSH1 0xC0 SHL PUSH2 0x1652 JUMP JUMPDEST PUSH2 0x3A3 PUSH8 0x22E660DE6D0FD92F PUSH1 0xC0 SHL PUSH2 0x1652 JUMP JUMPDEST PUSH2 0x3B7 PUSH8 0x92F98F90441FD96F PUSH1 0xC0 SHL PUSH2 0x1652 JUMP JUMPDEST PUSH2 0x3CB PUSH8 0xA140A4781BB31264 PUSH1 0xC0 SHL PUSH2 0x1652 JUMP JUMPDEST PUSH2 0x3DF PUSH8 0x8F3B857AB975113F PUSH1 0xC0 SHL PUSH2 0x1652 JUMP JUMPDEST PUSH1 0x0 JUMPDEST PUSH1 0x0 DUP1 SLOAD SWAP1 POP DUP2 LT ISZERO PUSH2 0x4C6 JUMPI PUSH2 0x403 PUSH8 0xC7229DEA74B44DD4 PUSH1 0xC0 SHL PUSH2 0x1652 JUMP JUMPDEST PUSH2 0x417 PUSH8 0x2117D900172BAEE3 PUSH1 0xC0 SHL PUSH2 0x1652 JUMP JUMPDEST PUSH1 0x0 DUP1 DUP3 DUP2 SLOAD DUP2 LT PUSH2 0x42C JUMPI PUSH2 0x42B PUSH2 0x2208 JUMP JUMPDEST JUMPDEST SWAP1 PUSH1 0x0 MSTORE PUSH1 0x20 PUSH1 0x0 KECCAK256 ADD PUSH1 0x0 SWAP1 SLOAD SWAP1 PUSH2 0x100 EXP SWAP1 DIV PUSH20 0xFFFFFFFFFFFFFFFFFFFFFFFFFFFFFFFFFFFFFFFF AND SWAP1 POP PUSH2 0x46D PUSH8 0xD3B2DBA96FBBA5DD PUSH1 0xC0 SHL PUSH2 0x1652 JUMP JUMPDEST PUSH1 0x0 PUSH1 0x1 PUSH1 0x0 DUP4 PUSH20 0xFFFFFFFFFFFFFFFFFFFFFFFFFFFFFFFFFFFFFFFF AND PUSH20 0xFFFFFFFFFFFFFFFFFFFFFFFFFFFFFFFFFFFFFFFF AND DUP2 MSTORE PUSH1 0x20 ADD SWAP1 DUP2 MSTORE PUSH1 0x20 ADD PUSH1 0x0 KECCAK256 DUP2 SWAP1 SSTORE POP POP DUP1 DUP1 PUSH2 0x4BE SWAP1 PUSH2 0x2161 JUMP JUMPDEST SWAP2 POP POP PUSH2 0x3E2 JUMP JUMPDEST POP PUSH2 0x4DB PUSH8 0xBB3F479CFAF55B79 PUSH1 0xC0 SHL PUSH2 0x1652 JUMP JUMPDEST PUSH1 0x0 PUSH8 0xFFFFFFFFFFFFFFFF DUP2 GT ISZERO PUSH2 0x4F6 JUMPI PUSH2 0x4F5 PUSH2 0x2237 JUMP JUMPDEST JUMPDEST PUSH1 0x40 MLOAD SWAP1 DUP1 DUP3 MSTORE DUP1 PUSH1 0x20 MUL PUSH1 0x20 ADD DUP3 ADD PUSH1 0x40 MSTORE DUP1 ISZERO PUSH2 0x524 JUMPI DUP2 PUSH1 0x20 ADD PUSH1 0x20 DUP3 MUL DUP1 CALLDATASIZE DUP4 CALLDATACOPY DUP1 DUP3 ADD SWAP2 POP POP SWAP1 POP JUMPDEST POP PUSH1 0x0 SWAP1 DUP1 MLOAD SWAP1 PUSH1 0x20 ADD SWAP1 PUSH2 0x53A SWAP3 SWAP2 SWAP1 PUSH2 0x1849 JUMP JUMPDEST POP PUSH2 0x54F PUSH8 0x51735C850C144EEB PUSH1 0xC0 SHL PUSH2 0x1652 JUMP JUMPDEST PUSH2 0x563 PUSH8 0xF43A6FA3DBD86937 PUSH1 0xC0 SHL PUSH2 0x1652 JUMP JUMPDEST PUSH32 0x0 PUSH20 0xFFFFFFFFFFFFFFFFFFFFFFFFFFFFFFFFFFFFFFFF AND PUSH2 0x8FC SELFBALANCE SWAP1 DUP2 ISZERO MUL SWAP1 PUSH1 0x40 MLOAD PUSH1 0x0 PUSH1 0x40 MLOAD DUP1 DUP4 SUB DUP2 DUP6 DUP9 DUP9 CALL SWAP4 POP POP POP POP ISZERO DUP1 ISZERO PUSH2 0x5C9 JUMPI RETURNDATASIZE PUSH1 0x0 DUP1 RETURNDATACOPY RETURNDATASIZE PUSH1 0x0 REVERT JUMPDEST POP PUSH2 0x5DE PUSH8 0xD64253D8D38F70B2 PUSH1 0xC0 SHL PUSH2 0x1652 JUMP JUMPDEST PUSH2 0x5F2 PUSH8 0x9B7306FCB30678DB PUSH1 0xC0 SHL PUSH2 0x1652 JUMP JUMPDEST PUSH1 0x0 PUSH32 0x0 PUSH20 0xFFFFFFFFFFFFFFFFFFFFFFFFFFFFFFFFFFFFFFFF AND SELFBALANCE PUSH1 0x40 MLOAD PUSH2 0x638 SWAP1 PUSH2 0x1C63 JUMP JUMPDEST PUSH1 0x0 PUSH1 0x40 MLOAD DUP1 DUP4 SUB DUP2 DUP6 DUP8 GAS CALL SWAP3 POP POP POP RETURNDATASIZE DUP1 PUSH1 0x0 DUP2 EQ PUSH2 0x675 JUMPI PUSH1 0x40 MLOAD SWAP2 POP PUSH1 0x1F NOT PUSH1 0x3F RETURNDATASIZE ADD AND DUP3 ADD PUSH1 0x40 MSTORE RETURNDATASIZE DUP3 MSTORE RETURNDATASIZE PUSH1 0x0 PUSH1 0x20 DUP5 ADD RETURNDATACOPY PUSH2 0x67A JUMP JUMPDEST PUSH1 0x60 SWAP2 POP JUMPDEST POP POP SWAP1 POP PUSH2 0x692 PUSH8 0x72ED2BBC1243CFAA PUSH1 0xC0 SHL PUSH2 0x1652 JUMP JUMPDEST PUSH2 0x6A6 PUSH8 0xB0D0F0AE0798A70B PUSH1 0xC0 SHL PUSH2 0x1652 JUMP JUMPDEST PUSH2 0x6BA PUSH8 0x27097BB88B32CFF0 PUSH1 0xC0 SHL PUSH2 0x1652 JUMP JUMPDEST DUP1 PUSH2 0x6C4 JUMPI PUSH1 0x0 DUP1 REVERT JUMPDEST PUSH2 0x6D8 PUSH8 0xC2DB940E367103DA PUSH1 0xC0 SHL PUSH2 0x1652 JUMP JUMPDEST PUSH2 0x6EC PUSH8 0x83D977041AAE87C0 PUSH1 0xC0 SHL PUSH2 0x1652 JUMP JUMPDEST PUSH2 0x700 PUSH8 0xBD260534AB6A6F16 PUSH1 0xC0 SHL PUSH2 0x1652 JUMP JUMPDEST PUSH32 0x86C8B3FE5CDF1F42C50C8745455206D24BB637ED5AFE24075813B808AB627329 CALLER SELFBALANCE PUSH32 0x0 PUSH1 0x40 MLOAD PUSH2 0x753 SWAP4 SWAP3 SWAP2 SWAP1 PUSH2 0x1C93 JUMP JUMPDEST PUSH1 0x40 MLOAD DUP1 SWAP2 SUB SWAP1 LOG1 POP JUMP JUMPDEST PUSH2 0x772 PUSH8 0xDE4588651B4301BA PUSH1 0xC0 SHL PUSH2 0x1652 JUMP JUMPDEST PUSH2 0x786 PUSH8 0x57DB2BA4FB8145CA PUSH1 0xC0 SHL PUSH2 0x1652 JUMP JUMPDEST PUSH2 0x79A PUSH8 0xA37DD95357493EC5 PUSH1 0xC0 SHL PUSH2 0x1652 JUMP JUMPDEST PUSH2 0x7AE PUSH8 0xF42E980538F66A2B PUSH1 0xC0 SHL PUSH2 0x1652 JUMP JUMPDEST PUSH32 0x0 PUSH20 0xFFFFFFFFFFFFFFFFFFFFFFFFFFFFFFFFFFFFFFFF AND CALLER PUSH20 0xFFFFFFFFFFFFFFFFFFFFFFFFFFFFFFFFFFFFFFFF AND EQ PUSH2 0x847 JUMPI PUSH2 0x815 PUSH8 0xBB31BEF5C1DE359F PUSH1 0xC0 SHL PUSH2 0x1652 JUMP JUMPDEST PUSH1 0x40 MLOAD PUSH32 0x579610DB00000000000000000000000000000000000000000000000000000000 DUP2 MSTORE PUSH1 0x4 ADD PUSH1 0x40 MLOAD DUP1 SWAP2 SUB SWAP1 REVERT JUMPDEST PUSH2 0x85B PUSH8 0xB598FC8F5084BBCD PUSH1 0xC0 SHL PUSH2 0x1652 JUMP JUMPDEST PUSH2 0x86F PUSH8 0xF0173A81C57556C4 PUSH1 0xC0 SHL PUSH2 0x1652 JUMP JUMPDEST PUSH2 0x883 PUSH8 0x71CE4AE12FD4A4EB PUSH1 0xC0 SHL PUSH2 0x1652 JUMP JUMPDEST PUSH2 0x897 PUSH8 0x5534FB2D06FBE493 PUSH1 0xC0 SHL PUSH2 0x1652 JUMP JUMPDEST PUSH2 0x8AB PUSH8 0x41A5E5220262F21D PUSH1 0xC0 SHL PUSH2 0x1652 JUMP JUMPDEST PUSH2 0x8BF PUSH8 0x8FAC45C7FB31AAF7 PUSH1 0xC0 SHL PUSH2 0x1652 JUMP JUMPDEST PUSH2 0x8D3 PUSH8 0xDD9CA4949F95C739 PUSH1 0xC0 SHL PUSH2 0x1652 JUMP JUMPDEST PUSH1 0x0 PUSH20 0xFFFFFFFFFFFFFFFFFFFFFFFFFFFFFFFFFFFFFFFF AND DUP3 PUSH20 0xFFFFFFFFFFFFFFFFFFFFFFFFFFFFFFFFFFFFFFFF AND EQ ISZERO PUSH2 0x943 JUMPI PUSH1 0x40 MLOAD PUSH32 0x8C379A000000000000000000000000000000000000000000000000000000000 DUP2 MSTORE PUSH1 0x4 ADD PUSH2 0x93A SWAP1 PUSH2 0x1D3E JUMP JUMPDEST PUSH1 0x40 MLOAD DUP1 SWAP2 SUB SWAP1 REVERT JUMPDEST PUSH2 0x957 PUSH8 0xDF18C4738B4B5369 PUSH1 0xC0 SHL PUSH2 0x1652 JUMP JUMPDEST PUSH2 0x96B PUSH8 0xDF7ABE4A423CE222 PUSH1 0xC0 SHL PUSH2 0x1652 JUMP JUMPDEST PUSH2 0x97F PUSH8 0xA7AA6A184897BF73 PUSH1 0xC0 SHL PUSH2 0x1652 JUMP JUMPDEST PUSH2 0x993 PUSH8 0x3A51646BDEC84CA9 PUSH1 0xC0 SHL PUSH2 0x1652 JUMP JUMPDEST PUSH2 0x99C DUP3 PUSH2 0x1655 JUMP JUMPDEST PUSH2 0x9DB JUMPI PUSH1 0x40 MLOAD PUSH32 0x8C379A000000000000000000000000000000000000000000000000000000000 DUP2 MSTORE PUSH1 0x4 ADD PUSH2 0x9D2 SWAP1 PUSH2 0x1D1E JUMP JUMPDEST PUSH1 0x40 MLOAD DUP1 SWAP2 SUB SWAP1 REVERT JUMPDEST PUSH2 0x9EF PUSH8 0xD9B31C8965ED65E8 PUSH1 0xC0 SHL PUSH2 0x1652 JUMP JUMPDEST PUSH2 0xA03 PUSH8 0x67701F9F67F1BFA6 PUSH1 0xC0 SHL PUSH2 0x1652 JUMP JUMPDEST PUSH2 0xA17 PUSH8 0xB169A44F0DC6AA05 PUSH1 0xC0 SHL PUSH2 0x1652 JUMP JUMPDEST PUSH2 0xA2B PUSH8 0xD5FC1A19D2C67AC2 PUSH1 0xC0 SHL PUSH2 0x1652 JUMP JUMPDEST PUSH1 0x0 PUSH1 0x1 PUSH1 0x0 DUP5 PUSH20 0xFFFFFFFFFFFFFFFFFFFFFFFFFFFFFFFFFFFFFFFF AND PUSH20 0xFFFFFFFFFFFFFFFFFFFFFFFFFFFFFFFFFFFFFFFF AND DUP2 MSTORE PUSH1 0x20 ADD SWAP1 DUP2 MSTORE PUSH1 0x20 ADD PUSH1 0x0 KECCAK256 SLOAD GT PUSH2 0xAAD JUMPI PUSH1 0x40 MLOAD PUSH32 0x8C379A000000000000000000000000000000000000000000000000000000000 DUP2 MSTORE PUSH1 0x4 ADD PUSH2 0xAA4 SWAP1 PUSH2 0x1DBE JUMP JUMPDEST PUSH1 0x40 MLOAD DUP1 SWAP2 SUB SWAP1 REVERT JUMPDEST PUSH2 0xAC1 PUSH8 0xA1858779310CB8B4 PUSH1 0xC0 SHL PUSH2 0x1652 JUMP JUMPDEST PUSH2 0xAD5 PUSH8 0x8634C149B0B6FFCE PUSH1 0xC0 SHL PUSH2 0x1652 JUMP JUMPDEST PUSH2 0xAE9 PUSH8 0xE49D6067AF99CD95 PUSH1 0xC0 SHL PUSH2 0x1652 JUMP JUMPDEST PUSH1 0x0 PUSH1 0x1 PUSH1 0x0 DUP5 PUSH20 0xFFFFFFFFFFFFFFFFFFFFFFFFFFFFFFFFFFFFFFFF AND PUSH20 0xFFFFFFFFFFFFFFFFFFFFFFFFFFFFFFFFFFFFFFFF AND DUP2 MSTORE PUSH1 0x20 ADD SWAP1 DUP2 MSTORE PUSH1 0x20 ADD PUSH1 0x0 KECCAK256 SLOAD SWAP1 POP PUSH2 0xB41 PUSH8 0x13C4BED6DDBD8526 PUSH1 0xC0 SHL PUSH2 0x1652 JUMP JUMPDEST PUSH2 0xB55 PUSH8 0x3B234DA1A1AF9BC7 PUSH1 0xC0 SHL PUSH2 0x1652 JUMP JUMPDEST PUSH2 0xB69 PUSH8 0x537484F9778BD9C8 PUSH1 0xC0 SHL PUSH2 0x1652 JUMP JUMPDEST DUP1 DUP3 GT ISZERO PUSH2 0xBAC JUMPI PUSH1 0x40 MLOAD PUSH32 0x8C379A000000000000000000000000000000000000000000000000000000000 DUP2 MSTORE PUSH1 0x4 ADD PUSH2 0xBA3 SWAP1 PUSH2 0x1D9E JUMP JUMPDEST PUSH1 0x40 MLOAD DUP1 SWAP2 SUB SWAP1 REVERT JUMPDEST PUSH2 0xBC0 PUSH8 0xEBB6F6713C53A9C0 PUSH1 0xC0 SHL PUSH2 0x1652 JUMP JUMPDEST PUSH2 0xBD4 PUSH8 0x2E76A8CB344D1114 PUSH1 0xC0 SHL PUSH2 0x1652 JUMP JUMPDEST PUSH2 0xBE8 PUSH8 0x265FDF39BD72E1D7 PUSH1 0xC0 SHL PUSH2 0x1652 JUMP JUMPDEST PUSH1 0x0 PUSH2 0x5208 GASPRICE PUSH2 0xBF8 SWAP2 SWAP1 PUSH2 0x201D JUMP JUMPDEST SWAP1 POP PUSH2 0xC0E PUSH8 0x69A1473161911E2E PUSH1 0xC0 SHL PUSH2 0x1652 JUMP JUMPDEST PUSH2 0xC22 PUSH8 0xA46A19ABFBE683A PUSH1 0xC0 SHL PUSH2 0x1652 JUMP JUMPDEST PUSH32 0x9C8133187FB8EBBFF36BDDA7E76F25C25CEB2F95AE3AD46AA0D5FFD2C1AD27C1 DUP2 PUSH1 0x40 MLOAD PUSH2 0xC51 SWAP2 SWAP1 PUSH2 0x1DDE JUMP JUMPDEST PUSH1 0x40 MLOAD DUP1 SWAP2 SUB SWAP1 LOG1 PUSH2 0xC6D PUSH8 0xEC86DAF22C56248 PUSH1 0xC0 SHL PUSH2 0x1652 JUMP JUMPDEST PUSH2 0xC81 PUSH8 0xA808BC6C5306D495 PUSH1 0xC0 SHL PUSH2 0x1652 JUMP JUMPDEST PUSH2 0xC95 PUSH8 0x2ED89C03CD69D2D3 PUSH1 0xC0 SHL PUSH2 0x1652 JUMP JUMPDEST SELFBALANCE DUP2 DUP5 PUSH2 0xCA2 SWAP2 SWAP1 PUSH2 0x1E7F JUMP JUMPDEST GT ISZERO PUSH2 0xCE3 JUMPI PUSH1 0x40 MLOAD PUSH32 0x8C379A000000000000000000000000000000000000000000000000000000000 DUP2 MSTORE PUSH1 0x4 ADD PUSH2 0xCDA SWAP1 PUSH2 0x1D5E JUMP JUMPDEST PUSH1 0x40 MLOAD DUP1 SWAP2 SUB SWAP1 REVERT JUMPDEST PUSH2 0xCF7 PUSH8 0xB12F4D78C146F5C9 PUSH1 0xC0 SHL PUSH2 0x1652 JUMP JUMPDEST PUSH2 0xD0B PUSH8 0xDA1151DC9856F36F PUSH1 0xC0 SHL PUSH2 0x1652 JUMP JUMPDEST DUP3 PUSH1 0x1 PUSH1 0x0 DUP7 PUSH20 0xFFFFFFFFFFFFFFFFFFFFFFFFFFFFFFFFFFFFFFFF AND PUSH20 0xFFFFFFFFFFFFFFFFFFFFFFFFFFFFFFFFFFFFFFFF AND DUP2 MSTORE PUSH1 0x20 ADD SWAP1 DUP2 MSTORE PUSH1 0x20 ADD PUSH1 0x0 KECCAK256 PUSH1 0x0 DUP3 DUP3 SLOAD PUSH2 0xD5A SWAP2 SWAP1 PUSH2 0x2077 JUMP JUMPDEST SWAP3 POP POP DUP2 SWAP1 SSTORE POP PUSH2 0xD75 PUSH8 0x623E8A9AAD43883D PUSH1 0xC0 SHL PUSH2 0x1652 JUMP JUMPDEST PUSH2 0xD89 PUSH8 0x5A22E741B51C10C0 PUSH1 0xC0 SHL PUSH2 0x1652 JUMP JUMPDEST DUP4 PUSH20 0xFFFFFFFFFFFFFFFFFFFFFFFFFFFFFFFFFFFFFFFF AND PUSH2 0x8FC DUP3 DUP6 PUSH2 0xDAF SWAP2 SWAP1 PUSH2 0x2077 JUMP JUMPDEST SWAP1 DUP2 ISZERO MUL SWAP1 PUSH1 0x40 MLOAD PUSH1 0x0 PUSH1 0x40 MLOAD DUP1 DUP4 SUB DUP2 DUP6 DUP9 DUP9 CALL SWAP4 POP POP POP POP ISZERO DUP1 ISZERO PUSH2 0xDDA JUMPI RETURNDATASIZE PUSH1 0x0 DUP1 RETURNDATACOPY RETURNDATASIZE PUSH1 0x0 REVERT JUMPDEST POP PUSH2 0xDEF PUSH8 0xE54EE6A8E49C60E1 PUSH1 0xC0 SHL PUSH2 0x1652 JUMP JUMPDEST PUSH2 0xE03 PUSH8 0xA9BBA0CA73655D97 PUSH1 0xC0 SHL PUSH2 0x1652 JUMP JUMPDEST PUSH32 0x2A81519BC34B7D126A5E787E78A239C21EA38FAFCB6EFC87BAE1D88705706E8 DUP2 DUP5 PUSH2 0xE30 SWAP2 SWAP1 PUSH2 0x2077 JUMP JUMPDEST DUP6 PUSH1 0x40 MLOAD PUSH2 0xE3F SWAP3 SWAP2 SWAP1 PUSH2 0x1E27 JUMP JUMPDEST PUSH1 0x40 MLOAD DUP1 SWAP2 SUB SWAP1 LOG1 POP POP POP POP JUMP JUMPDEST PUSH1 0x0 DUP2 DUP2 SLOAD DUP2 LT PUSH2 0xE5D JUMPI PUSH1 0x0 DUP1 REVERT JUMPDEST SWAP1 PUSH1 0x0 MSTORE PUSH1 0x20 PUSH1 0x0 KECCAK256 ADD PUSH1 0x0 SWAP2 POP SLOAD SWAP1 PUSH2 0x100 EXP SWAP1 DIV PUSH20 0xFFFFFFFFFFFFFFFFFFFFFFFFFFFFFFFFFFFFFFFF AND DUP2 JUMP JUMPDEST PUSH1 0x5 DUP2 JUMP JUMPDEST PUSH1 0x0 PUSH2 0xEA7 PUSH8 0xDAA3BE649556C116 PUSH1 0xC0 SHL PUSH2 0x1652 JUMP JUMPDEST PUSH2 0xEBB PUSH8 0xB59014ED289C731B PUSH1 0xC0 SHL PUSH2 0x1652 JUMP JUMPDEST PUSH2 0xECF PUSH8 0x72BF7AD1ACFB086 PUSH1 0xC0 SHL PUSH2 0x1652 JUMP JUMPDEST PUSH1 0x2 PUSH1 0x0 SWAP1 SLOAD SWAP1 PUSH2 0x100 EXP SWAP1 DIV PUSH20 0xFFFFFFFFFFFFFFFFFFFFFFFFFFFFFFFFFFFFFFFF AND SWAP1 POP SWAP1 JUMP JUMPDEST PUSH2 0xF0B PUSH8 0x8FC613AD90CF6436 PUSH1 0xC0 SHL PUSH2 0x1652 JUMP JUMPDEST PUSH2 0xF1F PUSH8 0x625BE242F42B7DD PUSH1 0xC0 SHL PUSH2 0x1652 JUMP JUMPDEST PUSH2 0xF33 PUSH8 0xF4DCB25B0191EAB7 PUSH1 0xC0 SHL PUSH2 0x1652 JUMP JUMPDEST PUSH2 0xF47 PUSH8 0x8E8CCC337F698E05 PUSH1 0xC0 SHL PUSH2 0x1652 JUMP JUMPDEST PUSH1 0x5 PUSH2 0xF7E PUSH1 0x2 PUSH1 0x0 SWAP1 SLOAD SWAP1 PUSH2 0x100 EXP SWAP1 DIV PUSH20 0xFFFFFFFFFFFFFFFFFFFFFFFFFFFFFFFFFFFFFFFF AND CALLVALUE PUSH2 0x1678 SWAP1 SWAP2 SWAP1 PUSH4 0xFFFFFFFF AND JUMP JUMPDEST LT ISZERO PUSH2 0xFBF JUMPI PUSH1 0x40 MLOAD PUSH32 0x8C379A000000000000000000000000000000000000000000000000000000000 DUP2 MSTORE PUSH1 0x4 ADD PUSH2 0xFB6 SWAP1 PUSH2 0x1D7E JUMP JUMPDEST PUSH1 0x40 MLOAD DUP1 SWAP2 SUB SWAP1 REVERT JUMPDEST PUSH2 0xFD3 PUSH8 0x4765A9704F57558D PUSH1 0xC0 SHL PUSH2 0x1652 JUMP JUMPDEST PUSH2 0xFE7 PUSH8 0x1C3D9E475C529838 PUSH1 0xC0 SHL PUSH2 0x1652 JUMP JUMPDEST CALLVALUE PUSH1 0x1 PUSH1 0x0 CALLER PUSH20 0xFFFFFFFFFFFFFFFFFFFFFFFFFFFFFFFFFFFFFFFF AND PUSH20 0xFFFFFFFFFFFFFFFFFFFFFFFFFFFFFFFFFFFFFFFF AND DUP2 MSTORE PUSH1 0x20 ADD SWAP1 DUP2 MSTORE PUSH1 0x20 ADD PUSH1 0x0 KECCAK256 PUSH1 0x0 DUP3 DUP3 SLOAD PUSH2 0x1036 SWAP2 SWAP1 PUSH2 0x1E7F JUMP JUMPDEST SWAP3 POP POP DUP2 SWAP1 SSTORE POP PUSH2 0x1051 PUSH8 0xA6259518A2FC2C05 PUSH1 0xC0 SHL PUSH2 0x1652 JUMP JUMPDEST PUSH2 0x1065 PUSH8 0xE31DC22E0927760D PUSH1 0xC0 SHL PUSH2 0x1652 JUMP JUMPDEST PUSH1 0x0 CALLER SWAP1 DUP1 PUSH1 0x1 DUP2 SLOAD ADD DUP1 DUP3 SSTORE DUP1 SWAP2 POP POP PUSH1 0x1 SWAP1 SUB SWAP1 PUSH1 0x0 MSTORE PUSH1 0x20 PUSH1 0x0 KECCAK256 ADD PUSH1 0x0 SWAP1 SWAP2 SWAP1 SWAP2 SWAP1 SWAP2 PUSH2 0x100 EXP DUP2 SLOAD DUP2 PUSH20 0xFFFFFFFFFFFFFFFFFFFFFFFFFFFFFFFFFFFFFFFF MUL NOT AND SWAP1 DUP4 PUSH20 0xFFFFFFFFFFFFFFFFFFFFFFFFFFFFFFFFFFFFFFFF AND MUL OR SWAP1 SSTORE POP PUSH2 0x10DC PUSH8 0x2A1F8886E43CD052 PUSH1 0xC0 SHL PUSH2 0x1652 JUMP JUMPDEST PUSH2 0x10F0 PUSH8 0xDD1FB1180927B48A PUSH1 0xC0 SHL PUSH2 0x1652 JUMP JUMPDEST CALLER PUSH20 0xFFFFFFFFFFFFFFFFFFFFFFFFFFFFFFFFFFFFFFFF AND PUSH32 0x54A5B8782470A0D2C022B3B9E5E729503AC5DBDFE053AFEB4559F9297F7565A6 PUSH2 0x115D PUSH1 0x2 PUSH1 0x0 SWAP1 SLOAD SWAP1 PUSH2 0x100 EXP SWAP1 DIV PUSH20 0xFFFFFFFFFFFFFFFFFFFFFFFFFFFFFFFFFFFFFFFF AND CALLVALUE PUSH2 0x1678 SWAP1 SWAP2 SWAP1 PUSH4 0xFFFFFFFF AND JUMP JUMPDEST PUSH1 0x40 MLOAD PUSH2 0x116A SWAP2 SWAP1 PUSH2 0x1E0C JUMP JUMPDEST PUSH1 0x40 MLOAD DUP1 SWAP2 SUB SWAP1 LOG2 JUMP JUMPDEST PUSH2 0x1188 PUSH8 0x76FB491726EA25E4 PUSH1 0xC0 SHL PUSH2 0x1652 JUMP JUMPDEST PUSH2 0x119C PUSH8 0x57DB2BA4FB8145CA PUSH1 0xC0 SHL PUSH2 0x1652 JUMP JUMPDEST PUSH2 0x11B0 PUSH8 0xA37DD95357493EC5 PUSH1 0xC0 SHL PUSH2 0x1652 JUMP JUMPDEST PUSH2 0x11C4 PUSH8 0xF42E980538F66A2B PUSH1 0xC0 SHL PUSH2 0x1652 JUMP JUMPDEST PUSH32 0x0 PUSH20 0xFFFFFFFFFFFFFFFFFFFFFFFFFFFFFFFFFFFFFFFF AND CALLER PUSH20 0xFFFFFFFFFFFFFFFFFFFFFFFFFFFFFFFFFFFFFFFF AND EQ PUSH2 0x125D JUMPI PUSH2 0x122B PUSH8 0xBB31BEF5C1DE359F PUSH1 0xC0 SHL PUSH2 0x1652 JUMP JUMPDEST PUSH1 0x40 MLOAD PUSH32 0x579610DB00000000000000000000000000000000000000000000000000000000 DUP2 MSTORE PUSH1 0x4 ADD PUSH1 0x40 MLOAD DUP1 SWAP2 SUB SWAP1 REVERT JUMPDEST PUSH2 0x1271 PUSH8 0xB598FC8F5084BBCD PUSH1 0xC0 SHL PUSH2 0x1652 JUMP JUMPDEST PUSH2 0x1285 PUSH8 0xF0173A81C57556C4 PUSH1 0xC0 SHL PUSH2 0x1652 JUMP JUMPDEST PUSH2 0x1299 PUSH8 0xEBEA3F367811E536 PUSH1 0xC0 SHL PUSH2 0x1652 JUMP JUMPDEST PUSH2 0x12AD PUSH8 0xBFF0233D6338A780 PUSH1 0xC0 SHL PUSH2 0x1652 JUMP JUMPDEST PUSH2 0x12C1 PUSH8 0x7DC49DB98E873665 PUSH1 0xC0 SHL PUSH2 0x1652 JUMP JUMPDEST PUSH2 0x12D5 PUSH8 0xA85D9A8982842617 PUSH1 0xC0 SHL PUSH2 0x1652 JUMP JUMPDEST PUSH1 0x0 DUP1 DUP1 SLOAD DUP1 PUSH1 0x20 MUL PUSH1 0x20 ADD PUSH1 0x40 MLOAD SWAP1 DUP2 ADD PUSH1 0x40 MSTORE DUP1 SWAP3 SWAP2 SWAP1 DUP2 DUP2 MSTORE PUSH1 0x20 ADD DUP3 DUP1 SLOAD DUP1 ISZERO PUSH2 0x1358 JUMPI PUSH1 0x20 MUL DUP3 ADD SWAP2 SWAP1 PUSH1 0x0 MSTORE PUSH1 0x20 PUSH1 0x0 KECCAK256 SWAP1 JUMPDEST DUP2 PUSH1 0x0 SWAP1 SLOAD SWAP1 PUSH2 0x100 EXP SWAP1 DIV PUSH20 0xFFFFFFFFFFFFFFFFFFFFFFFFFFFFFFFFFFFFFFFF AND PUSH20 0xFFFFFFFFFFFFFFFFFFFFFFFFFFFFFFFFFFFFFFFF AND DUP2 MSTORE PUSH1 0x20 ADD SWAP1 PUSH1 0x1 ADD SWAP1 DUP1 DUP4 GT PUSH2 0x130E JUMPI JUMPDEST POP POP POP POP POP SWAP1 POP PUSH2 0x1373 PUSH8 0xDC1B9F283DA8F1DB PUSH1 0xC0 SHL PUSH2 0x1652 JUMP JUMPDEST PUSH2 0x1387 PUSH8 0x9AC665C68A7E8B5F PUSH1 0xC0 SHL PUSH2 0x1652 JUMP JUMPDEST PUSH1 0x0 JUMPDEST DUP2 MLOAD DUP2 LT ISZERO PUSH2 0x1447 JUMPI PUSH2 0x13A7 PUSH8 0x4F9D526615CE5AD5 PUSH1 0xC0 SHL PUSH2 0x1652 JUMP JUMPDEST PUSH2 0x13BB PUSH8 0x9D33CB20E20D36BA PUSH1 0xC0 SHL PUSH2 0x1652 JUMP JUMPDEST PUSH1 0x0 DUP3 DUP3 DUP2 MLOAD DUP2 LT PUSH2 0x13D0 JUMPI PUSH2 0x13CF PUSH2 0x2208 JUMP JUMPDEST JUMPDEST PUSH1 0x20 MUL PUSH1 0x20 ADD ADD MLOAD SWAP1 POP PUSH2 0x13EE PUSH8 0xD63E5E67FE54B873 PUSH1 0xC0 SHL PUSH2 0x1652 JUMP JUMPDEST PUSH1 0x0 PUSH1 0x1 PUSH1 0x0 DUP4 PUSH20 0xFFFFFFFFFFFFFFFFFFFFFFFFFFFFFFFFFFFFFFFF AND PUSH20 0xFFFFFFFFFFFFFFFFFFFFFFFFFFFFFFFFFFFFFFFF AND DUP2 MSTORE PUSH1 0x20 ADD SWAP1 DUP2 MSTORE PUSH1 0x20 ADD PUSH1 0x0 KECCAK256 DUP2 SWAP1 SSTORE POP POP DUP1 DUP1 PUSH2 0x143F SWAP1 PUSH2 0x2161 JUMP JUMPDEST SWAP2 POP POP PUSH2 0x138A JUMP JUMPDEST POP PUSH2 0x145C PUSH8 0xC342F7CC8EF20BD1 PUSH1 0xC0 SHL PUSH2 0x1652 JUMP JUMPDEST PUSH1 0x0 PUSH8 0xFFFFFFFFFFFFFFFF DUP2 GT ISZERO PUSH2 0x1477 JUMPI PUSH2 0x1476 PUSH2 0x2237 JUMP JUMPDEST JUMPDEST PUSH1 0x40 MLOAD SWAP1 DUP1 DUP3 MSTORE DUP1 PUSH1 0x20 MUL PUSH1 0x20 ADD DUP3 ADD PUSH1 0x40 MSTORE DUP1 ISZERO PUSH2 0x14A5 JUMPI DUP2 PUSH1 0x20 ADD PUSH1 0x20 DUP3 MUL DUP1 CALLDATASIZE DUP4 CALLDATACOPY DUP1 DUP3 ADD SWAP2 POP POP SWAP1 POP JUMPDEST POP PUSH1 0x0 SWAP1 DUP1 MLOAD SWAP1 PUSH1 0x20 ADD SWAP1 PUSH2 0x14BB SWAP3 SWAP2 SWAP1 PUSH2 0x1849 JUMP JUMPDEST POP PUSH2 0x14D0 PUSH8 0x17EA339B8C0317B PUSH1 0xC0 SHL PUSH2 0x1652 JUMP JUMPDEST PUSH2 0x14E4 PUSH8 0xD8A4543F6CF658C6 PUSH1 0xC0 SHL PUSH2 0x1652 JUMP JUMPDEST PUSH1 0x0 PUSH32 0x0 PUSH20 0xFFFFFFFFFFFFFFFFFFFFFFFFFFFFFFFFFFFFFFFF AND SELFBALANCE PUSH1 0x40 MLOAD PUSH2 0x152A SWAP1 PUSH2 0x1C63 JUMP JUMPDEST PUSH1 0x0 PUSH1 0x40 MLOAD DUP1 DUP4 SUB DUP2 DUP6 DUP8 GAS CALL SWAP3 POP POP POP RETURNDATASIZE DUP1 PUSH1 0x0 DUP2 EQ PUSH2 0x1567 JUMPI PUSH1 0x40 MLOAD SWAP2 POP PUSH1 0x1F NOT PUSH1 0x3F RETURNDATASIZE ADD AND DUP3 ADD PUSH1 0x40 MSTORE RETURNDATASIZE DUP3 MSTORE RETURNDATASIZE PUSH1 0x0 PUSH1 0x20 DUP5 ADD RETURNDATACOPY PUSH2 0x156C JUMP JUMPDEST PUSH1 0x60 SWAP2 POP JUMPDEST POP POP SWAP1 POP PUSH2 0x1584 PUSH8 0xE7F8AB589276E2D9 PUSH1 0xC0 SHL PUSH2 0x1652 JUMP JUMPDEST PUSH2 0x1598 PUSH8 0xD3752EFA60B4CF7C PUSH1 0xC0 SHL PUSH2 0x1652 JUMP JUMPDEST PUSH2 0x15AC PUSH8 0x5A210A53FE32EBBD PUSH1 0xC0 SHL PUSH2 0x1652 JUMP JUMPDEST DUP1 PUSH2 0x15B6 JUMPI PUSH1 0x0 DUP1 REVERT JUMPDEST PUSH2 0x15CA PUSH8 0xCB0381B15162DA7A PUSH1 0xC0 SHL PUSH2 0x1652 JUMP JUMPDEST POP POP JUMP JUMPDEST PUSH1 0x0 PUSH2 0x15E4 PUSH8 0xD55BFC38D52FC977 PUSH1 0xC0 SHL PUSH2 0x1652 JUMP JUMPDEST PUSH2 0x15F8 PUSH8 0xAAD7268F4E85A095 PUSH1 0xC0 SHL PUSH2 0x1652 JUMP JUMPDEST PUSH2 0x160C PUSH8 0x7FD869DFF3B4D980 PUSH1 0xC0 SHL PUSH2 0x1652 JUMP JUMPDEST PUSH1 0x0 DUP3 DUP2 SLOAD DUP2 LT PUSH2 0x1620 JUMPI PUSH2 0x161F PUSH2 0x2208 JUMP JUMPDEST JUMPDEST SWAP1 PUSH1 0x0 MSTORE PUSH1 0x20 PUSH1 0x0 KECCAK256 ADD PUSH1 0x0 SWAP1 SLOAD SWAP1 PUSH2 0x100 EXP SWAP1 DIV PUSH20 0xFFFFFFFFFFFFFFFFFFFFFFFFFFFFFFFFFFFFFFFF AND SWAP1 POP SWAP2 SWAP1 POP JUMP JUMPDEST POP JUMP JUMPDEST PUSH1 0x0 DUP1 DUP3 PUSH20 0xFFFFFFFFFFFFFFFFFFFFFFFFFFFFFFFFFFFFFFFF AND EXTCODESIZE GT SWAP1 POP SWAP2 SWAP1 POP JUMP JUMPDEST PUSH1 0x0 PUSH2 0x168E PUSH8 0x491EC053804C9ECD PUSH1 0xC0 SHL PUSH2 0x1741 JUMP JUMPDEST PUSH2 0x16A2 PUSH8 0xBBB1230F171F62A7 PUSH1 0xC0 SHL PUSH2 0x1741 JUMP JUMPDEST PUSH2 0x16B6 PUSH8 0x8D723FA1383D8B1A PUSH1 0xC0 SHL PUSH2 0x1741 JUMP JUMPDEST PUSH1 0x0 PUSH2 0x16C1 DUP4 PUSH2 0x1744 JUMP JUMPDEST SWAP1 POP PUSH2 0x16D7 PUSH8 0xACF764FA8EC85BCE PUSH1 0xC0 SHL PUSH2 0x1741 JUMP JUMPDEST PUSH2 0x16EB PUSH8 0x13AA72290AD59632 PUSH1 0xC0 SHL PUSH2 0x1741 JUMP JUMPDEST PUSH1 0x0 PUSH8 0xDE0B6B3A7640000 DUP6 DUP4 PUSH2 0x1702 SWAP2 SWAP1 PUSH2 0x201D JUMP JUMPDEST PUSH2 0x170C SWAP2 SWAP1 PUSH2 0x1ED5 JUMP JUMPDEST SWAP1 POP PUSH2 0x1722 PUSH8 0x4081705437A02941 PUSH1 0xC0 SHL PUSH2 0x1741 JUMP JUMPDEST PUSH2 0x1736 PUSH8 0x3BE0483229D05F3 PUSH1 0xC0 SHL PUSH2 0x1741 JUMP JUMPDEST DUP1 SWAP3 POP POP POP SWAP3 SWAP2 POP POP JUMP JUMPDEST POP JUMP JUMPDEST PUSH1 0x0 PUSH2 0x175A PUSH8 0x3CF1D95F80995211 PUSH1 0xC0 SHL PUSH2 0x1741 JUMP JUMPDEST PUSH2 0x176E PUSH8 0xE6C246274703BEA0 PUSH1 0xC0 SHL PUSH2 0x1741 JUMP JUMPDEST PUSH2 0x1782 PUSH8 0xAC7F4820EC811B96 PUSH1 0xC0 SHL PUSH2 0x1741 JUMP JUMPDEST PUSH1 0x0 DUP3 PUSH20 0xFFFFFFFFFFFFFFFFFFFFFFFFFFFFFFFFFFFFFFFF AND PUSH4 0xFEAF968C PUSH1 0x40 MLOAD DUP2 PUSH4 0xFFFFFFFF AND PUSH1 0xE0 SHL DUP2 MSTORE PUSH1 0x4 ADD PUSH1 0xA0 PUSH1 0x40 MLOAD DUP1 DUP4 SUB DUP2 DUP7 DUP1 EXTCODESIZE ISZERO DUP1 ISZERO PUSH2 0x17CA JUMPI PUSH1 0x0 DUP1 REVERT JUMPDEST POP GAS STATICCALL ISZERO DUP1 ISZERO PUSH2 0x17DE JUMPI RETURNDATASIZE PUSH1 0x0 DUP1 RETURNDATACOPY RETURNDATASIZE PUSH1 0x0 REVERT JUMPDEST POP POP POP POP PUSH1 0x40 MLOAD RETURNDATASIZE PUSH1 0x1F NOT PUSH1 0x1F DUP3 ADD AND DUP3 ADD DUP1 PUSH1 0x40 MSTORE POP DUP2 ADD SWAP1 PUSH2 0x1802 SWAP2 SWAP1 PUSH2 0x1A08 JUMP JUMPDEST POP POP POP SWAP2 POP POP PUSH2 0x181C PUSH8 0xD0BF8CDF0A6D7A59 PUSH1 0xC0 SHL PUSH2 0x1741 JUMP JUMPDEST PUSH2 0x1830 PUSH8 0x607720CDFAFF066E PUSH1 0xC0 SHL PUSH2 0x1741 JUMP JUMPDEST PUSH5 0x2540BE400 DUP2 PUSH2 0x1841 SWAP2 SWAP1 PUSH2 0x1F06 JUMP JUMPDEST SWAP2 POP POP SWAP2 SWAP1 POP JUMP JUMPDEST DUP3 DUP1 SLOAD DUP3 DUP3 SSTORE SWAP1 PUSH1 0x0 MSTORE PUSH1 0x20 PUSH1 0x0 KECCAK256 SWAP1 DUP2 ADD SWAP3 DUP3 ISZERO PUSH2 0x18C2 JUMPI SWAP2 PUSH1 0x20 MUL DUP3 ADD JUMPDEST DUP3 DUP2 GT ISZERO PUSH2 0x18C1 JUMPI DUP3 MLOAD DUP3 PUSH1 0x0 PUSH2 0x100 EXP DUP2 SLOAD DUP2 PUSH20 0xFFFFFFFFFFFFFFFFFFFFFFFFFFFFFFFFFFFFFFFF MUL NOT AND SWAP1 DUP4 PUSH20 0xFFFFFFFFFFFFFFFFFFFFFFFFFFFFFFFFFFFFFFFF AND MUL OR SWAP1 SSTORE POP SWAP2 PUSH1 0x20 ADD SWAP2 SWAP1 PUSH1 0x1 ADD SWAP1 PUSH2 0x1869 JUMP JUMPDEST JUMPDEST POP SWAP1 POP PUSH2 0x18CF SWAP2 SWAP1 PUSH2 0x18D3 JUMP JUMPDEST POP SWAP1 JUMP JUMPDEST JUMPDEST DUP1 DUP3 GT ISZERO PUSH2 0x18EC JUMPI PUSH1 0x0 DUP2 PUSH1 0x0 SWAP1 SSTORE POP PUSH1 0x1 ADD PUSH2 0x18D4 JUMP JUMPDEST POP SWAP1 JUMP JUMPDEST PUSH1 0x0 DUP2 CALLDATALOAD SWAP1 POP PUSH2 0x18FF DUP2 PUSH2 0x24A3 JUMP JUMPDEST SWAP3 SWAP2 POP POP JUMP JUMPDEST PUSH1 0x0 DUP2 CALLDATALOAD SWAP1 POP PUSH2 0x1914 DUP2 PUSH2 0x24BA JUMP JUMPDEST SWAP3 SWAP2 POP POP JUMP JUMPDEST PUSH1 0x0 DUP2 MLOAD SWAP1 POP PUSH2 0x1929 DUP2 PUSH2 0x24D1 JUMP JUMPDEST SWAP3 SWAP2 POP POP JUMP JUMPDEST PUSH1 0x0 DUP2 CALLDATALOAD SWAP1 POP PUSH2 0x193E DUP2 PUSH2 0x24E8 JUMP JUMPDEST SWAP3 SWAP2 POP POP JUMP JUMPDEST PUSH1 0x0 DUP2 MLOAD SWAP1 POP PUSH2 0x1953 DUP2 PUSH2 0x24E8 JUMP JUMPDEST SWAP3 SWAP2 POP POP JUMP JUMPDEST PUSH1 0x0 DUP2 MLOAD SWAP1 POP PUSH2 0x1968 DUP2 PUSH2 0x24FF JUMP JUMPDEST SWAP3 SWAP2 POP POP JUMP JUMPDEST PUSH1 0x0 PUSH1 0x20 DUP3 DUP5 SUB SLT ISZERO PUSH2 0x1984 JUMPI PUSH2 0x1983 PUSH2 0x2266 JUMP JUMPDEST JUMPDEST PUSH1 0x0 PUSH2 0x1992 DUP5 DUP3 DUP6 ADD PUSH2 0x18F0 JUMP JUMPDEST SWAP2 POP POP SWAP3 SWAP2 POP POP JUMP JUMPDEST PUSH1 0x0 DUP1 PUSH1 0x40 DUP4 DUP6 SUB SLT ISZERO PUSH2 0x19B2 JUMPI PUSH2 0x19B1 PUSH2 0x2266 JUMP JUMPDEST JUMPDEST PUSH1 0x0 PUSH2 0x19C0 DUP6 DUP3 DUP7 ADD PUSH2 0x1905 JUMP JUMPDEST SWAP3 POP POP PUSH1 0x20 PUSH2 0x19D1 DUP6 DUP3 DUP7 ADD PUSH2 0x192F JUMP JUMPDEST SWAP2 POP POP SWAP3 POP SWAP3 SWAP1 POP JUMP JUMPDEST PUSH1 0x0 PUSH1 0x20 DUP3 DUP5 SUB SLT ISZERO PUSH2 0x19F1 JUMPI PUSH2 0x19F0 PUSH2 0x2266 JUMP JUMPDEST JUMPDEST PUSH1 0x0 PUSH2 0x19FF DUP5 DUP3 DUP6 ADD PUSH2 0x192F JUMP JUMPDEST SWAP2 POP POP SWAP3 SWAP2 POP POP JUMP JUMPDEST PUSH1 0x0 DUP1 PUSH1 0x0 DUP1 PUSH1 0x0 PUSH1 0xA0 DUP7 DUP9 SUB SLT ISZERO PUSH2 0x1A24 JUMPI PUSH2 0x1A23 PUSH2 0x2266 JUMP JUMPDEST JUMPDEST PUSH1 0x0 PUSH2 0x1A32 DUP9 DUP3 DUP10 ADD PUSH2 0x1959 JUMP JUMPDEST SWAP6 POP POP PUSH1 0x20 PUSH2 0x1A43 DUP9 DUP3 DUP10 ADD PUSH2 0x191A JUMP JUMPDEST SWAP5 POP POP PUSH1 0x40 PUSH2 0x1A54 DUP9 DUP3 DUP10 ADD PUSH2 0x1944 JUMP JUMPDEST SWAP4 POP POP PUSH1 0x60 PUSH2 0x1A65 DUP9 DUP3 DUP10 ADD PUSH2 0x1944 JUMP JUMPDEST SWAP3 POP POP PUSH1 0x80 PUSH2 0x1A76 DUP9 DUP3 DUP10 ADD PUSH2 0x1959 JUMP JUMPDEST SWAP2 POP POP SWAP3 SWAP6 POP SWAP3 SWAP6 SWAP1 SWAP4 POP JUMP JUMPDEST PUSH2 0x1A8C DUP2 PUSH2 0x2119 JUMP JUMPDEST DUP3 MSTORE POP POP JUMP JUMPDEST PUSH2 0x1A9B DUP2 PUSH2 0x20AB JUMP JUMPDEST DUP3 MSTORE POP POP JUMP JUMPDEST PUSH2 0x1AAA DUP2 PUSH2 0x212B JUMP JUMPDEST DUP3 MSTORE POP POP JUMP JUMPDEST PUSH1 0x0 PUSH2 0x1ABD PUSH1 0x1E DUP4 PUSH2 0x1E6E JUMP JUMPDEST SWAP2 POP PUSH2 0x1AC8 DUP3 PUSH2 0x226B JUMP JUMPDEST PUSH1 0x20 DUP3 ADD SWAP1 POP SWAP2 SWAP1 POP JUMP JUMPDEST PUSH1 0x0 PUSH2 0x1AE0 PUSH1 0xD DUP4 PUSH2 0x1E6E JUMP JUMPDEST SWAP2 POP PUSH2 0x1AEB DUP3 PUSH2 0x2294 JUMP JUMPDEST PUSH1 0x20 DUP3 ADD SWAP1 POP SWAP2 SWAP1 POP JUMP JUMPDEST PUSH1 0x0 PUSH2 0x1B03 PUSH1 0x19 DUP4 PUSH2 0x1E6E JUMP JUMPDEST SWAP2 POP PUSH2 0x1B0E DUP3 PUSH2 0x22BD JUMP JUMPDEST PUSH1 0x20 DUP3 ADD SWAP1 POP SWAP2 SWAP1 POP JUMP JUMPDEST PUSH1 0x0 PUSH2 0x1B26 PUSH1 0x2A DUP4 PUSH2 0x1E6E JUMP JUMPDEST SWAP2 POP PUSH2 0x1B31 DUP3 PUSH2 0x22E6 JUMP JUMPDEST PUSH1 0x40 DUP3 ADD SWAP1 POP SWAP2 SWAP1 POP JUMP JUMPDEST PUSH1 0x0 PUSH2 0x1B49 PUSH1 0x1B DUP4 PUSH2 0x1E6E JUMP JUMPDEST SWAP2 POP PUSH2 0x1B54 DUP3 PUSH2 0x2335 JUMP JUMPDEST PUSH1 0x20 DUP3 ADD SWAP1 POP SWAP2 SWAP1 POP JUMP JUMPDEST PUSH1 0x0 PUSH2 0x1B6C PUSH1 0x5 DUP4 PUSH2 0x1E6E JUMP JUMPDEST SWAP2 POP PUSH2 0x1B77 DUP3 PUSH2 0x235E JUMP JUMPDEST PUSH1 0x20 DUP3 ADD SWAP1 POP SWAP2 SWAP1 POP JUMP JUMPDEST PUSH1 0x0 PUSH2 0x1B8F PUSH1 0x30 DUP4 PUSH2 0x1E6E JUMP JUMPDEST SWAP2 POP PUSH2 0x1B9A DUP3 PUSH2 0x2387 JUMP JUMPDEST PUSH1 0x40 DUP3 ADD SWAP1 POP SWAP2 SWAP1 POP JUMP JUMPDEST PUSH1 0x0 PUSH2 0x1BB2 PUSH1 0x0 DUP4 PUSH2 0x1E63 JUMP JUMPDEST SWAP2 POP PUSH2 0x1BBD DUP3 PUSH2 0x23D6 JUMP JUMPDEST PUSH1 0x0 DUP3 ADD SWAP1 POP SWAP2 SWAP1 POP JUMP JUMPDEST PUSH1 0x0 PUSH2 0x1BD5 PUSH1 0x2F DUP4 PUSH2 0x1E6E JUMP JUMPDEST SWAP2 POP PUSH2 0x1BE0 DUP3 PUSH2 0x23D9 JUMP JUMPDEST PUSH1 0x40 DUP3 ADD SWAP1 POP SWAP2 SWAP1 POP JUMP JUMPDEST PUSH1 0x0 PUSH2 0x1BF8 PUSH1 0x3 DUP4 PUSH2 0x1E6E JUMP JUMPDEST SWAP2 POP PUSH2 0x1C03 DUP3 PUSH2 0x2428 JUMP JUMPDEST PUSH1 0x20 DUP3 ADD SWAP1 POP SWAP2 SWAP1 POP JUMP JUMPDEST PUSH1 0x0 PUSH2 0x1C1B PUSH1 0xC DUP4 PUSH2 0x1E6E JUMP JUMPDEST SWAP2 POP PUSH2 0x1C26 DUP3 PUSH2 0x2451 JUMP JUMPDEST PUSH1 0x20 DUP3 ADD SWAP1 POP SWAP2 SWAP1 POP JUMP JUMPDEST PUSH1 0x0 PUSH2 0x1C3E PUSH1 0x18 DUP4 PUSH2 0x1E6E JUMP JUMPDEST SWAP2 POP PUSH2 0x1C49 DUP3 PUSH2 0x247A JUMP JUMPDEST PUSH1 0x20 DUP3 ADD SWAP1 POP SWAP2 SWAP1 POP JUMP JUMPDEST PUSH2 0x1C5D DUP2 PUSH2 0x20F9 JUMP JUMPDEST DUP3 MSTORE POP POP JUMP JUMPDEST PUSH1 0x0 PUSH2 0x1C6E DUP3 PUSH2 0x1BA5 JUMP JUMPDEST SWAP2 POP DUP2 SWAP1 POP SWAP2 SWAP1 POP JUMP JUMPDEST PUSH1 0x0 PUSH1 0x20 DUP3 ADD SWAP1 POP PUSH2 0x1C8D PUSH1 0x0 DUP4 ADD DUP5 PUSH2 0x1A92 JUMP JUMPDEST SWAP3 SWAP2 POP POP JUMP JUMPDEST PUSH1 0x0 PUSH1 0xC0 DUP3 ADD SWAP1 POP PUSH2 0x1CA8 PUSH1 0x0 DUP4 ADD DUP7 PUSH2 0x1A92 JUMP JUMPDEST DUP2 DUP2 SUB PUSH1 0x20 DUP4 ADD MSTORE PUSH2 0x1CB9 DUP2 PUSH2 0x1B5F JUMP JUMPDEST SWAP1 POP PUSH2 0x1CC8 PUSH1 0x40 DUP4 ADD DUP6 PUSH2 0x1C54 JUMP JUMPDEST DUP2 DUP2 SUB PUSH1 0x60 DUP4 ADD MSTORE PUSH2 0x1CD9 DUP2 PUSH2 0x1BEB JUMP JUMPDEST SWAP1 POP PUSH2 0x1CE8 PUSH1 0x80 DUP4 ADD DUP5 PUSH2 0x1A92 JUMP JUMPDEST DUP2 DUP2 SUB PUSH1 0xA0 DUP4 ADD MSTORE PUSH2 0x1CF9 DUP2 PUSH2 0x1AD3 JUMP JUMPDEST SWAP1 POP SWAP5 SWAP4 POP POP POP POP JUMP JUMPDEST PUSH1 0x0 PUSH1 0x20 DUP3 ADD SWAP1 POP PUSH2 0x1D18 PUSH1 0x0 DUP4 ADD DUP5 PUSH2 0x1AA1 JUMP JUMPDEST SWAP3 SWAP2 POP POP JUMP JUMPDEST PUSH1 0x0 PUSH1 0x20 DUP3 ADD SWAP1 POP DUP2 DUP2 SUB PUSH1 0x0 DUP4 ADD MSTORE PUSH2 0x1D37 DUP2 PUSH2 0x1AB0 JUMP JUMPDEST SWAP1 POP SWAP2 SWAP1 POP JUMP JUMPDEST PUSH1 0x0 PUSH1 0x20 DUP3 ADD SWAP1 POP DUP2 DUP2 SUB PUSH1 0x0 DUP4 ADD MSTORE PUSH2 0x1D57 DUP2 PUSH2 0x1AF6 JUMP JUMPDEST SWAP1 POP SWAP2 SWAP1 POP JUMP JUMPDEST PUSH1 0x0 PUSH1 0x20 DUP3 ADD SWAP1 POP DUP2 DUP2 SUB PUSH1 0x0 DUP4 ADD MSTORE PUSH2 0x1D77 DUP2 PUSH2 0x1B19 JUMP JUMPDEST SWAP1 POP SWAP2 SWAP1 POP JUMP JUMPDEST PUSH1 0x0 PUSH1 0x20 DUP3 ADD SWAP1 POP DUP2 DUP2 SUB PUSH1 0x0 DUP4 ADD MSTORE PUSH2 0x1D97 DUP2 PUSH2 0x1B3C JUMP JUMPDEST SWAP1 POP SWAP2 SWAP1 POP JUMP JUMPDEST PUSH1 0x0 PUSH1 0x20 DUP3 ADD SWAP1 POP DUP2 DUP2 SUB PUSH1 0x0 DUP4 ADD MSTORE PUSH2 0x1DB7 DUP2 PUSH2 0x1B82 JUMP JUMPDEST SWAP1 POP SWAP2 SWAP1 POP JUMP JUMPDEST PUSH1 0x0 PUSH1 0x20 DUP3 ADD SWAP1 POP DUP2 DUP2 SUB PUSH1 0x0 DUP4 ADD MSTORE PUSH2 0x1DD7 DUP2 PUSH2 0x1BC8 JUMP JUMPDEST SWAP1 POP SWAP2 SWAP1 POP JUMP JUMPDEST PUSH1 0x0 PUSH1 0x40 DUP3 ADD SWAP1 POP DUP2 DUP2 SUB PUSH1 0x0 DUP4 ADD MSTORE PUSH2 0x1DF7 DUP2 PUSH2 0x1C0E JUMP JUMPDEST SWAP1 POP PUSH2 0x1E06 PUSH1 0x20 DUP4 ADD DUP5 PUSH2 0x1C54 JUMP JUMPDEST SWAP3 SWAP2 POP POP JUMP JUMPDEST PUSH1 0x0 PUSH1 0x20 DUP3 ADD SWAP1 POP PUSH2 0x1E21 PUSH1 0x0 DUP4 ADD DUP5 PUSH2 0x1C54 JUMP JUMPDEST SWAP3 SWAP2 POP POP JUMP JUMPDEST PUSH1 0x0 PUSH1 0x60 DUP3 ADD SWAP1 POP PUSH2 0x1E3C PUSH1 0x0 DUP4 ADD DUP6 PUSH2 0x1C54 JUMP JUMPDEST DUP2 DUP2 SUB PUSH1 0x20 DUP4 ADD MSTORE PUSH2 0x1E4D DUP2 PUSH2 0x1C31 JUMP JUMPDEST SWAP1 POP PUSH2 0x1E5C PUSH1 0x40 DUP4 ADD DUP5 PUSH2 0x1A83 JUMP JUMPDEST SWAP4 SWAP3 POP POP POP JUMP JUMPDEST PUSH1 0x0 DUP2 SWAP1 POP SWAP3 SWAP2 POP POP JUMP JUMPDEST PUSH1 0x0 DUP3 DUP3 MSTORE PUSH1 0x20 DUP3 ADD SWAP1 POP SWAP3 SWAP2 POP POP JUMP JUMPDEST PUSH1 0x0 PUSH2 0x1E8A DUP3 PUSH2 0x20F9 JUMP JUMPDEST SWAP2 POP PUSH2 0x1E95 DUP4 PUSH2 0x20F9 JUMP JUMPDEST SWAP3 POP DUP3 PUSH32 0xFFFFFFFFFFFFFFFFFFFFFFFFFFFFFFFFFFFFFFFFFFFFFFFFFFFFFFFFFFFFFFFF SUB DUP3 GT ISZERO PUSH2 0x1ECA JUMPI PUSH2 0x1EC9 PUSH2 0x21AA JUMP JUMPDEST JUMPDEST DUP3 DUP3 ADD SWAP1 POP SWAP3 SWAP2 POP POP JUMP JUMPDEST PUSH1 0x0 PUSH2 0x1EE0 DUP3 PUSH2 0x20F9 JUMP JUMPDEST SWAP2 POP PUSH2 0x1EEB DUP4 PUSH2 0x20F9 JUMP JUMPDEST SWAP3 POP DUP3 PUSH2 0x1EFB JUMPI PUSH2 0x1EFA PUSH2 0x21D9 JUMP JUMPDEST JUMPDEST DUP3 DUP3 DIV SWAP1 POP SWAP3 SWAP2 POP POP JUMP JUMPDEST PUSH1 0x0 PUSH2 0x1F11 DUP3 PUSH2 0x20CF JUMP JUMPDEST SWAP2 POP PUSH2 0x1F1C DUP4 PUSH2 0x20CF JUMP JUMPDEST SWAP3 POP DUP3 PUSH32 0x7FFFFFFFFFFFFFFFFFFFFFFFFFFFFFFFFFFFFFFFFFFFFFFFFFFFFFFFFFFFFFFF DIV DUP3 GT PUSH1 0x0 DUP5 SGT PUSH1 0x0 DUP5 SGT AND AND ISZERO PUSH2 0x1F5B JUMPI PUSH2 0x1F5A PUSH2 0x21AA JUMP JUMPDEST JUMPDEST DUP2 PUSH32 0x8000000000000000000000000000000000000000000000000000000000000000 SDIV DUP4 SLT PUSH1 0x0 DUP5 SLT PUSH1 0x0 DUP5 SGT AND AND ISZERO PUSH2 0x1F98 JUMPI PUSH2 0x1F97 PUSH2 0x21AA JUMP JUMPDEST JUMPDEST DUP3 PUSH32 0x8000000000000000000000000000000000000000000000000000000000000000 SDIV DUP3 SLT PUSH1 0x0 DUP5 SGT PUSH1 0x0 DUP5 SLT AND AND ISZERO PUSH2 0x1FD5 JUMPI PUSH2 0x1FD4 PUSH2 0x21AA JUMP JUMPDEST JUMPDEST DUP3 PUSH32 0x7FFFFFFFFFFFFFFFFFFFFFFFFFFFFFFFFFFFFFFFFFFFFFFFFFFFFFFFFFFFFFFF SDIV DUP3 SLT PUSH1 0x0 DUP5 SLT PUSH1 0x0 DUP5 SLT AND AND ISZERO PUSH2 0x2012 JUMPI PUSH2 0x2011 PUSH2 0x21AA JUMP JUMPDEST JUMPDEST DUP3 DUP3 MUL SWAP1 POP SWAP3 SWAP2 POP POP JUMP JUMPDEST PUSH1 0x0 PUSH2 0x2028 DUP3 PUSH2 0x20F9 JUMP JUMPDEST SWAP2 POP PUSH2 0x2033 DUP4 PUSH2 0x20F9 JUMP JUMPDEST SWAP3 POP DUP2 PUSH32 0xFFFFFFFFFFFFFFFFFFFFFFFFFFFFFFFFFFFFFFFFFFFFFFFFFFFFFFFFFFFFFFFF DIV DUP4 GT DUP3 ISZERO ISZERO AND ISZERO PUSH2 0x206C JUMPI PUSH2 0x206B PUSH2 0x21AA JUMP JUMPDEST JUMPDEST DUP3 DUP3 MUL SWAP1 POP SWAP3 SWAP2 POP POP JUMP JUMPDEST PUSH1 0x0 PUSH2 0x2082 DUP3 PUSH2 0x20F9 JUMP JUMPDEST SWAP2 POP PUSH2 0x208D DUP4 PUSH2 0x20F9 JUMP JUMPDEST SWAP3 POP DUP3 DUP3 LT ISZERO PUSH2 0x20A0 JUMPI PUSH2 0x209F PUSH2 0x21AA JUMP JUMPDEST JUMPDEST DUP3 DUP3 SUB SWAP1 POP SWAP3 SWAP2 POP POP JUMP JUMPDEST PUSH1 0x0 PUSH2 0x20B6 DUP3 PUSH2 0x20D9 JUMP JUMPDEST SWAP1 POP SWAP2 SWAP1 POP JUMP JUMPDEST PUSH1 0x0 PUSH2 0x20C8 DUP3 PUSH2 0x20D9 JUMP JUMPDEST SWAP1 POP SWAP2 SWAP1 POP JUMP JUMPDEST PUSH1 0x0 DUP2 SWAP1 POP SWAP2 SWAP1 POP JUMP JUMPDEST PUSH1 0x0 PUSH20 0xFFFFFFFFFFFFFFFFFFFFFFFFFFFFFFFFFFFFFFFF DUP3 AND SWAP1 POP SWAP2 SWAP1 POP JUMP JUMPDEST PUSH1 0x0 DUP2 SWAP1 POP SWAP2 SWAP1 POP JUMP JUMPDEST PUSH1 0x0 PUSH10 0xFFFFFFFFFFFFFFFFFFFF DUP3 AND SWAP1 POP SWAP2 SWAP1 POP JUMP JUMPDEST PUSH1 0x0 PUSH2 0x2124 DUP3 PUSH2 0x213D JUMP JUMPDEST SWAP1 POP SWAP2 SWAP1 POP JUMP JUMPDEST PUSH1 0x0 PUSH2 0x2136 DUP3 PUSH2 0x213D JUMP JUMPDEST SWAP1 POP SWAP2 SWAP1 POP JUMP JUMPDEST PUSH1 0x0 PUSH2 0x2148 DUP3 PUSH2 0x214F JUMP JUMPDEST SWAP1 POP SWAP2 SWAP1 POP JUMP JUMPDEST PUSH1 0x0 PUSH2 0x215A DUP3 PUSH2 0x20D9 JUMP JUMPDEST SWAP1 POP SWAP2 SWAP1 POP JUMP JUMPDEST PUSH1 0x0 PUSH2 0x216C DUP3 PUSH2 0x20F9 JUMP JUMPDEST SWAP2 POP PUSH32 0xFFFFFFFFFFFFFFFFFFFFFFFFFFFFFFFFFFFFFFFFFFFFFFFFFFFFFFFFFFFFFFFF DUP3 EQ ISZERO PUSH2 0x219F JUMPI PUSH2 0x219E PUSH2 0x21AA JUMP JUMPDEST JUMPDEST PUSH1 0x1 DUP3 ADD SWAP1 POP SWAP2 SWAP1 POP JUMP JUMPDEST PUSH32 0x4E487B7100000000000000000000000000000000000000000000000000000000 PUSH1 0x0 MSTORE PUSH1 0x11 PUSH1 0x4 MSTORE PUSH1 0x24 PUSH1 0x0 REVERT JUMPDEST PUSH32 0x4E487B7100000000000000000000000000000000000000000000000000000000 PUSH1 0x0 MSTORE PUSH1 0x12 PUSH1 0x4 MSTORE PUSH1 0x24 PUSH1 0x0 REVERT JUMPDEST PUSH32 0x4E487B7100000000000000000000000000000000000000000000000000000000 PUSH1 0x0 MSTORE PUSH1 0x32 PUSH1 0x4 MSTORE PUSH1 0x24 PUSH1 0x0 REVERT JUMPDEST PUSH32 0x4E487B7100000000000000000000000000000000000000000000000000000000 PUSH1 0x0 MSTORE PUSH1 0x41 PUSH1 0x4 MSTORE PUSH1 0x24 PUSH1 0x0 REVERT JUMPDEST PUSH1 0x0 DUP1 REVERT JUMPDEST PUSH32 0x557365722061646472657373206973206E6F74206120636F6E74726163740000 PUSH1 0x0 DUP3 ADD MSTORE POP JUMP JUMPDEST PUSH32 0x207375636365737366756C6C7900000000000000000000000000000000000000 PUSH1 0x0 DUP3 ADD MSTORE POP JUMP JUMPDEST PUSH32 0x55736572206164647265737320697320756E646566696E656400000000000000 PUSH1 0x0 DUP3 ADD MSTORE POP JUMP JUMPDEST PUSH32 0x4E6F7420656E6F7567682066756E647320696E2074686520636F6E7472616374 PUSH1 0x0 DUP3 ADD MSTORE PUSH32 0x20746F20726566756E6400000000000000000000000000000000000000000000 PUSH1 0x20 DUP3 ADD MSTORE POP JUMP JUMPDEST PUSH32 0x596F75206E65656420746F207370656E64206D6F726520455448210000000000 PUSH1 0x0 DUP3 ADD MSTORE POP JUMP JUMPDEST PUSH32 0x73656E7420000000000000000000000000000000000000000000000000000000 PUSH1 0x0 DUP3 ADD MSTORE POP JUMP JUMPDEST PUSH32 0x526566756E6420616D6F756E74206973206D6F7265207468616E20746865206E PUSH1 0x0 DUP3 ADD MSTORE PUSH32 0x657420616D6F756E742066756E64656400000000000000000000000000000000 PUSH1 0x20 DUP3 ADD MSTORE POP JUMP JUMPDEST POP JUMP JUMPDEST PUSH32 0x5573657220686173206E6F742073656E7420616E79206D6F6E657920746F2074 PUSH1 0x0 DUP3 ADD MSTORE PUSH32 0x686520636F6E7472616374207965740000000000000000000000000000000000 PUSH1 0x20 DUP3 ADD MSTORE POP JUMP JUMPDEST PUSH32 0x20746F0000000000000000000000000000000000000000000000000000000000 PUSH1 0x0 DUP3 ADD MSTORE POP JUMP JUMPDEST PUSH32 0x47617320636F73742069733A0000000000000000000000000000000000000000 PUSH1 0x0 DUP3 ADD MSTORE POP JUMP JUMPDEST PUSH32 0x7375636365737366756C6C7920726566756E64656420746F0000000000000000 PUSH1 0x0 DUP3 ADD MSTORE POP JUMP JUMPDEST PUSH2 0x24AC DUP2 PUSH2 0x20AB JUMP JUMPDEST DUP2 EQ PUSH2 0x24B7 JUMPI PUSH1 0x0 DUP1 REVERT JUMPDEST POP JUMP JUMPDEST PUSH2 0x24C3 DUP2 PUSH2 0x20BD JUMP JUMPDEST DUP2 EQ PUSH2 0x24CE JUMPI PUSH1 0x0 DUP1 REVERT JUMPDEST POP JUMP JUMPDEST PUSH2 0x24DA DUP2 PUSH2 0x20CF JUMP JUMPDEST DUP2 EQ PUSH2 0x24E5 JUMPI PUSH1 0x0 DUP1 REVERT JUMPDEST POP JUMP JUMPDEST PUSH2 0x24F1 DUP2 PUSH2 0x20F9 JUMP JUMPDEST DUP2 EQ PUSH2 0x24FC JUMPI PUSH1 0x0 DUP1 REVERT JUMPDEST POP JUMP JUMPDEST PUSH2 0x2508 DUP2 PUSH2 0x2103 JUMP JUMPDEST DUP2 EQ PUSH2 0x2513 JUMPI PUSH1 0x0 DUP1 REVERT JUMPDEST POP JUMP INVALID LOG2 PUSH5 0x6970667358 0x22 SLT KECCAK256 EXTCODESIZE NOT 0xD 0xC8 0xB3 PUSH8 0xE0F1D11AEBF12E6D SWAP13 PUSH8 0x657629DA6004C678 PC BALANCE PUSH6 0xACB7B009C464 PUSH20 0x6F6C634300080700330000000000000000000000 "},"gasEstimates":{"creation":{"codeDepositCost":"1909600","executionCost":"infinite","totalCost":"infinite"},"external":{"MINIMUM_USD()":"329","cheaperWithdraw()":"infinite","fund()":"infinite","getAddressToAmountFunded(address)":"infinite","getFunder(uint256)":"infinite","getPriceFeed()":"infinite","refund(address,uint256)":"infinite","s_funders(uint256)":"5023","withdraw()":"infinite"},"internal":{"c_eb72b077(bytes8)":"11","c_falseeb72b077(bytes8)":"infinite","c_trueeb72b077(bytes8)":"infinite"}},"methodIdentifiers":{"MINIMUM_USD()":"6b69a592","cheaperWithdraw()":"be2693f0","fund()":"b60d4288","getAddressToAmountFunded(address)":"0343fb25","getFunder(uint256)":"d7b4750c","getPriceFeed()":"9e87a5cd","refund(address,uint256)":"410085df","s_funders(uint256)":"54861af7","withdraw()":"3ccfd60b"}},"storageLayout":{"storage":[{"astId":1207,"contract":"contracts/FundMe.sol:FundMe","label":"s_funders","offset":0,"slot":"0","type":"t_array(t_address)dyn_storage"},{"astId":1211,"contract":"contracts/FundMe.sol:FundMe","label":"s_addressToAmountFunded","offset":0,"slot":"1","type":"t_mapping(t_address,t_uint256)"},{"astId":1214,"contract":"contracts/FundMe.sol:FundMe","label":"s_priceFeed","offset":0,"slot":"2","type":"t_contract(AggregatorV3Interface)45"}],"types":{"t_address":{"encoding":"inplace","label":"address","numberOfBytes":"20"},"t_array(t_address)dyn_storage":{"base":"t_address","encoding":"dynamic_array","label":"address[]","numberOfBytes":"32"},"t_contract(AggregatorV3Interface)45":{"encoding":"inplace","label":"contract AggregatorV3Interface","numberOfBytes":"20"},"t_mapping(t_address,t_uint256)":{"encoding":"mapping","key":"t_address","label":"mapping(address => uint256)","numberOfBytes":"32","value":"t_uint256"},"t_uint256":{"encoding":"inplace","label":"uint256","numberOfBytes":"32"}}},"userdoc":{"kind":"user","methods":{"fund()":{"notice":"Funds our contract based on the ETH/USD price"},"getAddressToAmountFunded(address)":{"notice":"Gets the amount that an address has funded"}},"notice":"This contract is for creating a sample funding contract","version":1}}}}